{
	"escrow.sol": {
		"Escrow": {
			"abi": [
				{
					"inputs": [],
					"stateMutability": "nonpayable",
					"type": "constructor"
				},
				{
					"anonymous": false,
					"inputs": [
						{
							"indexed": false,
							"internalType": "string",
							"name": "_feedback",
							"type": "string"
						}
					],
					"name": "feedbackLog",
					"type": "event"
				},
				{
					"anonymous": false,
					"inputs": [
						{
							"indexed": false,
							"internalType": "string",
							"name": "_secret",
							"type": "string"
						}
					],
					"name": "txInfo",
					"type": "event"
				},
				{
					"inputs": [
						{
							"internalType": "bool",
							"name": "_isConfirmed",
							"type": "bool"
						},
						{
							"internalType": "address",
							"name": "_vendor",
							"type": "address"
						},
						{
							"internalType": "address",
							"name": "_messenger",
							"type": "address"
						}
					],
					"name": "confirmDelivery",
					"outputs": [],
					"stateMutability": "nonpayable",
					"type": "function"
				},
				{
					"inputs": [],
					"name": "contractOwner",
					"outputs": [
						{
							"internalType": "address",
							"name": "",
							"type": "address"
						}
					],
					"stateMutability": "view",
					"type": "function"
				},
				{
					"inputs": [
						{
							"internalType": "address",
							"name": "_messenger",
							"type": "address"
						},
						{
							"internalType": "string",
							"name": "_secretHash",
							"type": "string"
						}
					],
					"name": "depositToContract",
					"outputs": [],
					"stateMutability": "payable",
					"type": "function"
				},
				{
					"inputs": [
						{
							"internalType": "address",
							"name": "vendor",
							"type": "address"
						},
						{
							"internalType": "address",
							"name": "messenger",
							"type": "address"
						}
					],
					"name": "getStagedMoney",
					"outputs": [
						{
							"internalType": "uint256",
							"name": "",
							"type": "uint256"
						}
					],
					"stateMutability": "view",
					"type": "function"
				},
				{
					"inputs": [
						{
							"internalType": "address",
							"name": "__vendor",
							"type": "address"
						},
						{
							"internalType": "address",
							"name": "_messenger",
							"type": "address"
						}
					],
					"name": "returnMoneyToVendor",
					"outputs": [],
					"stateMutability": "nonpayable",
					"type": "function"
				}
			],
			"devdoc": {
				"kind": "dev",
				"methods": {},
				"version": 1
			},
			"evm": {
				"assembly": "    /* \"escrow.sol\":116:3771  contract Escrow {\r... */\n  mstore(0x40, 0x80)\n    /* \"escrow.sol\":559:617  constructor(){\r... */\n  callvalue\n  dup1\n  iszero\n  tag_1\n  jumpi\n  0x00\n  dup1\n  revert\ntag_1:\n  pop\n    /* \"escrow.sol\":599:609  msg.sender */\n  caller\n    /* \"escrow.sol\":583:596  contractOwner */\n  0x00\n  dup1\n    /* \"escrow.sol\":583:609  contractOwner = msg.sender */\n  0x0100\n  exp\n  dup2\n  sload\n  dup2\n  0xffffffffffffffffffffffffffffffffffffffff\n  mul\n  not\n  and\n  swap1\n  dup4\n  0xffffffffffffffffffffffffffffffffffffffff\n  and\n  mul\n  or\n  swap1\n  sstore\n  pop\n    /* \"escrow.sol\":116:3771  contract Escrow {\r... */\n  dataSize(sub_0)\n  dup1\n  dataOffset(sub_0)\n  0x00\n  codecopy\n  0x00\n  return\nstop\n\nsub_0: assembly {\n        /* \"escrow.sol\":116:3771  contract Escrow {\r... */\n      mstore(0x40, 0x80)\n      jumpi(tag_1, lt(calldatasize, 0x04))\n      shr(0xe0, calldataload(0x00))\n      dup1\n      0x1713248d\n      eq\n      tag_2\n      jumpi\n      dup1\n      0xa82d6437\n      eq\n      tag_3\n      jumpi\n      dup1\n      0xa8f89ee1\n      eq\n      tag_4\n      jumpi\n      dup1\n      0xce606ee0\n      eq\n      tag_5\n      jumpi\n      dup1\n      0xe14dd969\n      eq\n      tag_6\n      jumpi\n    tag_1:\n      0x00\n      dup1\n      revert\n        /* \"escrow.sol\":627:1469  function depositToContract(address _messenger, string memory _secretHash)public payable {\r... */\n    tag_2:\n      tag_7\n      0x04\n      dup1\n      calldatasize\n      sub\n      dup2\n      add\n      swap1\n      tag_8\n      swap2\n      swap1\n      tag_9\n      jump\t// in\n    tag_8:\n      tag_10\n      jump\t// in\n    tag_7:\n      stop\n        /* \"escrow.sol\":3077:3768  function returnMoneyToVendor(address __vendor, address _messenger) public {\r... */\n    tag_3:\n      callvalue\n      dup1\n      iszero\n      tag_11\n      jumpi\n      0x00\n      dup1\n      revert\n    tag_11:\n      pop\n      tag_12\n      0x04\n      dup1\n      calldatasize\n      sub\n      dup2\n      add\n      swap1\n      tag_13\n      swap2\n      swap1\n      tag_14\n      jump\t// in\n    tag_13:\n      tag_15\n      jump\t// in\n    tag_12:\n      stop\n        /* \"escrow.sol\":1477:1623  function getStagedMoney(address vendor, address messenger) public view returns(uint){\r... */\n    tag_4:\n      callvalue\n      dup1\n      iszero\n      tag_16\n      jumpi\n      0x00\n      dup1\n      revert\n    tag_16:\n      pop\n      tag_17\n      0x04\n      dup1\n      calldatasize\n      sub\n      dup2\n      add\n      swap1\n      tag_18\n      swap2\n      swap1\n      tag_14\n      jump\t// in\n    tag_18:\n      tag_19\n      jump\t// in\n    tag_17:\n      mload(0x40)\n      tag_20\n      swap2\n      swap1\n      tag_21\n      jump\t// in\n    tag_20:\n      mload(0x40)\n      dup1\n      swap2\n      sub\n      swap1\n      return\n        /* \"escrow.sol\":139:167  address public contractOwner */\n    tag_5:\n      callvalue\n      dup1\n      iszero\n      tag_22\n      jumpi\n      0x00\n      dup1\n      revert\n    tag_22:\n      pop\n      tag_23\n      tag_24\n      jump\t// in\n    tag_23:\n      mload(0x40)\n      tag_25\n      swap2\n      swap1\n      tag_26\n      jump\t// in\n    tag_25:\n      mload(0x40)\n      dup1\n      swap2\n      sub\n      swap1\n      return\n        /* \"escrow.sol\":1631:2051  function confirmDelivery(bool _isConfirmed, address _vendor, address _messenger) public {\r... */\n    tag_6:\n      callvalue\n      dup1\n      iszero\n      tag_27\n      jumpi\n      0x00\n      dup1\n      revert\n    tag_27:\n      pop\n      tag_28\n      0x04\n      dup1\n      calldatasize\n      sub\n      dup2\n      add\n      swap1\n      tag_29\n      swap2\n      swap1\n      tag_30\n      jump\t// in\n    tag_29:\n      tag_31\n      jump\t// in\n    tag_28:\n      stop\n        /* \"escrow.sol\":627:1469  function depositToContract(address _messenger, string memory _secretHash)public payable {\r... */\n    tag_10:\n        /* \"escrow.sol\":746:747  0 */\n      0x00\n        /* \"escrow.sol\":734:743  msg.value */\n      callvalue\n        /* \"escrow.sol\":734:747  msg.value > 0 */\n      gt\n        /* \"escrow.sol\":726:772  require(msg.value > 0, \"Cannot send O amount\") */\n      tag_33\n      jumpi\n      mload(0x40)\n      0x08c379a000000000000000000000000000000000000000000000000000000000\n      dup2\n      mstore\n      0x04\n      add\n      tag_34\n      swap1\n      tag_35\n      jump\t// in\n    tag_34:\n      mload(0x40)\n      dup1\n      swap2\n      sub\n      swap1\n      revert\n    tag_33:\n        /* \"escrow.sol\":783:798  uint amountSent */\n      0x00\n        /* \"escrow.sol\":801:810  msg.value */\n      callvalue\n        /* \"escrow.sol\":783:810  uint amountSent = msg.value */\n      swap1\n      pop\n        /* \"escrow.sol\":821:835  address caller */\n      0x00\n        /* \"escrow.sol\":838:848  msg.sender */\n      caller\n        /* \"escrow.sol\":821:848  address caller = msg.sender */\n      swap1\n      pop\n        /* \"escrow.sol\":1005:1015  msg.sender */\n      caller\n        /* \"escrow.sol\":987:994  vendors */\n      0x04\n        /* \"escrow.sol\":987:1002  vendors[caller] */\n      0x00\n        /* \"escrow.sol\":995:1001  caller */\n      dup4\n        /* \"escrow.sol\":987:1002  vendors[caller] */\n      0xffffffffffffffffffffffffffffffffffffffff\n      and\n      0xffffffffffffffffffffffffffffffffffffffff\n      and\n      dup2\n      mstore\n      0x20\n      add\n      swap1\n      dup2\n      mstore\n      0x20\n      add\n      0x00\n      keccak256\n      0x00\n        /* \"escrow.sol\":987:1015  vendors[caller] = msg.sender */\n      0x0100\n      exp\n      dup2\n      sload\n      dup2\n      0xffffffffffffffffffffffffffffffffffffffff\n      mul\n      not\n      and\n      swap1\n      dup4\n      0xffffffffffffffffffffffffffffffffffffffff\n      and\n      mul\n      or\n      swap1\n      sstore\n      pop\n        /* \"escrow.sol\":1026:1042  address localMan */\n      0x00\n        /* \"escrow.sol\":1076:1086  _messenger */\n      dup5\n        /* \"escrow.sol\":1053:1063  messengers */\n      0x05\n        /* \"escrow.sol\":1053:1073  messengers[localMan] */\n      0x00\n        /* \"escrow.sol\":1064:1072  localMan */\n      dup4\n        /* \"escrow.sol\":1053:1073  messengers[localMan] */\n      0xffffffffffffffffffffffffffffffffffffffff\n      and\n      0xffffffffffffffffffffffffffffffffffffffff\n      and\n      dup2\n      mstore\n      0x20\n      add\n      swap1\n      dup2\n      mstore\n      0x20\n      add\n      0x00\n      keccak256\n      0x00\n        /* \"escrow.sol\":1053:1086  messengers[localMan] = _messenger */\n      0x0100\n      exp\n      dup2\n      sload\n      dup2\n      0xffffffffffffffffffffffffffffffffffffffff\n      mul\n      not\n      and\n      swap1\n      dup4\n      0xffffffffffffffffffffffffffffffffffffffff\n      and\n      mul\n      or\n      swap1\n      sstore\n      pop\n        /* \"escrow.sol\":1097:1116  address takeControl */\n      0x00\n        /* \"escrow.sol\":1119:1129  messengers */\n      0x05\n        /* \"escrow.sol\":1119:1139  messengers[localMan] */\n      0x00\n        /* \"escrow.sol\":1130:1138  localMan */\n      dup4\n        /* \"escrow.sol\":1119:1139  messengers[localMan] */\n      0xffffffffffffffffffffffffffffffffffffffff\n      and\n      0xffffffffffffffffffffffffffffffffffffffff\n      and\n      dup2\n      mstore\n      0x20\n      add\n      swap1\n      dup2\n      mstore\n      0x20\n      add\n      0x00\n      keccak256\n      0x00\n      swap1\n      sload\n      swap1\n      0x0100\n      exp\n      swap1\n      div\n      0xffffffffffffffffffffffffffffffffffffffff\n      and\n        /* \"escrow.sol\":1097:1139  address takeControl = messengers[localMan] */\n      swap1\n      pop\n        /* \"escrow.sol\":1239:1249  amountSent */\n      dup4\n        /* \"escrow.sol\":1219:1227  balances */\n      0x01\n        /* \"escrow.sol\":1219:1235  balances[caller] */\n      0x00\n        /* \"escrow.sol\":1228:1234  caller */\n      dup6\n        /* \"escrow.sol\":1219:1235  balances[caller] */\n      0xffffffffffffffffffffffffffffffffffffffff\n      and\n      0xffffffffffffffffffffffffffffffffffffffff\n      and\n      dup2\n      mstore\n      0x20\n      add\n      swap1\n      dup2\n      mstore\n      0x20\n      add\n      0x00\n      keccak256\n      0x00\n        /* \"escrow.sol\":1219:1249  balances[caller] += amountSent */\n      dup3\n      dup3\n      sload\n      tag_36\n      swap2\n      swap1\n      tag_37\n      jump\t// in\n    tag_36:\n      swap3\n      pop\n      pop\n      dup2\n      swap1\n      sstore\n      pop\n        /* \"escrow.sol\":1302:1312  amountSent */\n      dup4\n        /* \"escrow.sol\":1260:1277  payingToMessenger */\n      0x02\n        /* \"escrow.sol\":1260:1285  payingToMessenger[caller] */\n      0x00\n        /* \"escrow.sol\":1278:1284  caller */\n      dup6\n        /* \"escrow.sol\":1260:1285  payingToMessenger[caller] */\n      0xffffffffffffffffffffffffffffffffffffffff\n      and\n      0xffffffffffffffffffffffffffffffffffffffff\n      and\n      dup2\n      mstore\n      0x20\n      add\n      swap1\n      dup2\n      mstore\n      0x20\n      add\n      0x00\n      keccak256\n        /* \"escrow.sol\":1260:1298  payingToMessenger[caller][takeControl] */\n      0x00\n        /* \"escrow.sol\":1286:1297  takeControl */\n      dup4\n        /* \"escrow.sol\":1260:1298  payingToMessenger[caller][takeControl] */\n      0xffffffffffffffffffffffffffffffffffffffff\n      and\n      0xffffffffffffffffffffffffffffffffffffffff\n      and\n      dup2\n      mstore\n      0x20\n      add\n      swap1\n      dup2\n      mstore\n      0x20\n      add\n      0x00\n      keccak256\n      0x00\n        /* \"escrow.sol\":1260:1312  payingToMessenger[caller][takeControl] += amountSent */\n      dup3\n      dup3\n      sload\n      tag_38\n      swap2\n      swap1\n      tag_37\n      jump\t// in\n    tag_38:\n      swap3\n      pop\n      pop\n      dup2\n      swap1\n      sstore\n      pop\n        /* \"escrow.sol\":1421:1426  false */\n      0x00\n        /* \"escrow.sol\":1379:1397  isPackageDelivered */\n      0x03\n        /* \"escrow.sol\":1379:1405  isPackageDelivered[caller] */\n      0x00\n        /* \"escrow.sol\":1398:1404  caller */\n      dup6\n        /* \"escrow.sol\":1379:1405  isPackageDelivered[caller] */\n      0xffffffffffffffffffffffffffffffffffffffff\n      and\n      0xffffffffffffffffffffffffffffffffffffffff\n      and\n      dup2\n      mstore\n      0x20\n      add\n      swap1\n      dup2\n      mstore\n      0x20\n      add\n      0x00\n      keccak256\n        /* \"escrow.sol\":1379:1418  isPackageDelivered[caller][takeControl] */\n      0x00\n        /* \"escrow.sol\":1406:1417  takeControl */\n      dup4\n        /* \"escrow.sol\":1379:1418  isPackageDelivered[caller][takeControl] */\n      0xffffffffffffffffffffffffffffffffffffffff\n      and\n      0xffffffffffffffffffffffffffffffffffffffff\n      and\n      dup2\n      mstore\n      0x20\n      add\n      swap1\n      dup2\n      mstore\n      0x20\n      add\n      0x00\n      keccak256\n      0x00\n        /* \"escrow.sol\":1379:1426  isPackageDelivered[caller][takeControl] = false */\n      0x0100\n      exp\n      dup2\n      sload\n      dup2\n      0xff\n      mul\n      not\n      and\n      swap1\n      dup4\n      iszero\n      iszero\n      mul\n      or\n      swap1\n      sstore\n      pop\n        /* \"escrow.sol\":1442:1461  txInfo(_secretHash) */\n      0xadb6715bd1da9425e8f8fa8ef7e7185c12d644f1db5fedea84c79f2d2adee449\n        /* \"escrow.sol\":1449:1460  _secretHash */\n      dup6\n        /* \"escrow.sol\":1442:1461  txInfo(_secretHash) */\n      mload(0x40)\n      tag_39\n      swap2\n      swap1\n      tag_40\n      jump\t// in\n    tag_39:\n      mload(0x40)\n      dup1\n      swap2\n      sub\n      swap1\n      log1\n        /* \"escrow.sol\":715:1469  {\r... */\n      pop\n      pop\n      pop\n      pop\n        /* \"escrow.sol\":627:1469  function depositToContract(address _messenger, string memory _secretHash)public payable {\r... */\n      pop\n      pop\n      jump\t// out\n        /* \"escrow.sol\":3077:3768  function returnMoneyToVendor(address __vendor, address _messenger) public {\r... */\n    tag_15:\n        /* \"escrow.sol\":3240:3253  contractOwner */\n      0x00\n      dup1\n      sload\n      swap1\n      0x0100\n      exp\n      swap1\n      div\n      0xffffffffffffffffffffffffffffffffffffffff\n      and\n        /* \"escrow.sol\":3226:3253  msg.sender == contractOwner */\n      0xffffffffffffffffffffffffffffffffffffffff\n      and\n        /* \"escrow.sol\":3226:3236  msg.sender */\n      caller\n        /* \"escrow.sol\":3226:3253  msg.sender == contractOwner */\n      0xffffffffffffffffffffffffffffffffffffffff\n      and\n      eq\n        /* \"escrow.sol\":3218:3280  require(msg.sender == contractOwner, \"Only Admin can do this\") */\n      tag_42\n      jumpi\n      mload(0x40)\n      0x08c379a000000000000000000000000000000000000000000000000000000000\n      dup2\n      mstore\n      0x04\n      add\n      tag_43\n      swap1\n      tag_44\n      jump\t// in\n    tag_43:\n      mload(0x40)\n      dup1\n      swap2\n      sub\n      swap1\n      revert\n    tag_42:\n        /* \"escrow.sol\":3291:3302  uint amount */\n      0x00\n        /* \"escrow.sol\":3305:3322  payingToMessenger */\n      0x02\n        /* \"escrow.sol\":3305:3332  payingToMessenger[__vendor] */\n      0x00\n        /* \"escrow.sol\":3323:3331  __vendor */\n      dup5\n        /* \"escrow.sol\":3305:3332  payingToMessenger[__vendor] */\n      0xffffffffffffffffffffffffffffffffffffffff\n      and\n      0xffffffffffffffffffffffffffffffffffffffff\n      and\n      dup2\n      mstore\n      0x20\n      add\n      swap1\n      dup2\n      mstore\n      0x20\n      add\n      0x00\n      keccak256\n        /* \"escrow.sol\":3305:3344  payingToMessenger[__vendor][_messenger] */\n      0x00\n        /* \"escrow.sol\":3333:3343  _messenger */\n      dup4\n        /* \"escrow.sol\":3305:3344  payingToMessenger[__vendor][_messenger] */\n      0xffffffffffffffffffffffffffffffffffffffff\n      and\n      0xffffffffffffffffffffffffffffffffffffffff\n      and\n      dup2\n      mstore\n      0x20\n      add\n      swap1\n      dup2\n      mstore\n      0x20\n      add\n      0x00\n      keccak256\n      sload\n        /* \"escrow.sol\":3291:3344  uint amount = payingToMessenger[__vendor][_messenger] */\n      swap1\n      pop\n        /* \"escrow.sol\":3379:3385  amount */\n      dup1\n        /* \"escrow.sol\":3357:3365  balances */\n      0x01\n        /* \"escrow.sol\":3357:3375  balances[__vendor] */\n      0x00\n        /* \"escrow.sol\":3366:3374  __vendor */\n      dup6\n        /* \"escrow.sol\":3357:3375  balances[__vendor] */\n      0xffffffffffffffffffffffffffffffffffffffff\n      and\n      0xffffffffffffffffffffffffffffffffffffffff\n      and\n      dup2\n      mstore\n      0x20\n      add\n      swap1\n      dup2\n      mstore\n      0x20\n      add\n      0x00\n      keccak256\n      0x00\n        /* \"escrow.sol\":3357:3385  balances[__vendor] -= amount */\n      dup3\n      dup3\n      sload\n      tag_45\n      swap2\n      swap1\n      tag_46\n      jump\t// in\n    tag_45:\n      swap3\n      pop\n      pop\n      dup2\n      swap1\n      sstore\n      pop\n        /* \"escrow.sol\":3438:3439  0 */\n      0x00\n        /* \"escrow.sol\":3396:3413  payingToMessenger */\n      0x02\n        /* \"escrow.sol\":3396:3423  payingToMessenger[__vendor] */\n      0x00\n        /* \"escrow.sol\":3414:3422  __vendor */\n      dup6\n        /* \"escrow.sol\":3396:3423  payingToMessenger[__vendor] */\n      0xffffffffffffffffffffffffffffffffffffffff\n      and\n      0xffffffffffffffffffffffffffffffffffffffff\n      and\n      dup2\n      mstore\n      0x20\n      add\n      swap1\n      dup2\n      mstore\n      0x20\n      add\n      0x00\n      keccak256\n        /* \"escrow.sol\":3396:3435  payingToMessenger[__vendor][_messenger] */\n      0x00\n        /* \"escrow.sol\":3424:3434  _messenger */\n      dup5\n        /* \"escrow.sol\":3396:3435  payingToMessenger[__vendor][_messenger] */\n      0xffffffffffffffffffffffffffffffffffffffff\n      and\n      0xffffffffffffffffffffffffffffffffffffffff\n      and\n      dup2\n      mstore\n      0x20\n      add\n      swap1\n      dup2\n      mstore\n      0x20\n      add\n      0x00\n      keccak256\n        /* \"escrow.sol\":3396:3439  payingToMessenger[__vendor][_messenger] = 0 */\n      dup2\n      swap1\n      sstore\n      pop\n        /* \"escrow.sol\":3465:3473  __vendor */\n      dup3\n        /* \"escrow.sol\":3457:3479  payable(__vendor).send */\n      0xffffffffffffffffffffffffffffffffffffffff\n      and\n        /* \"escrow.sol\":3457:3487  payable(__vendor).send(amount) */\n      0x08fc\n        /* \"escrow.sol\":3480:3486  amount */\n      dup3\n        /* \"escrow.sol\":3457:3487  payable(__vendor).send(amount) */\n      swap1\n      dup2\n      iszero\n      mul\n      swap1\n      mload(0x40)\n      0x00\n      mload(0x40)\n      dup1\n      dup4\n      sub\n      dup2\n      dup6\n      dup9\n      dup9\n      call\n      swap4\n      pop\n      pop\n      pop\n      pop\n        /* \"escrow.sol\":3454:3761  if(payable(__vendor).send(amount)){\r... */\n      iszero\n      tag_48\n      jumpi\n        /* \"escrow.sol\":3508:3544  feedbackLog(\"withdrawal successful\") */\n      0x06169a5f6fdc157bf38af80eecc218b46765eab9ad2d530d9a143fd8501602ef\n      mload(0x40)\n      tag_49\n      swap1\n      tag_50\n      jump\t// in\n    tag_49:\n      mload(0x40)\n      dup1\n      swap2\n      sub\n      swap1\n      log1\n        /* \"escrow.sol\":3454:3761  if(payable(__vendor).send(amount)){\r... */\n      jump(tag_51)\n    tag_48:\n        /* \"escrow.sol\":3611:3617  amount */\n      dup1\n        /* \"escrow.sol\":3589:3597  balances */\n      0x01\n        /* \"escrow.sol\":3589:3607  balances[__vendor] */\n      0x00\n        /* \"escrow.sol\":3598:3606  __vendor */\n      dup6\n        /* \"escrow.sol\":3589:3607  balances[__vendor] */\n      0xffffffffffffffffffffffffffffffffffffffff\n      and\n      0xffffffffffffffffffffffffffffffffffffffff\n      and\n      dup2\n      mstore\n      0x20\n      add\n      swap1\n      dup2\n      mstore\n      0x20\n      add\n      0x00\n      keccak256\n      0x00\n        /* \"escrow.sol\":3589:3617  balances[__vendor] += amount */\n      dup3\n      dup3\n      sload\n      tag_52\n      swap2\n      swap1\n      tag_37\n      jump\t// in\n    tag_52:\n      swap3\n      pop\n      pop\n      dup2\n      swap1\n      sstore\n      pop\n        /* \"escrow.sol\":3675:3681  amount */\n      dup1\n        /* \"escrow.sol\":3632:3649  payingToMessenger */\n      0x02\n        /* \"escrow.sol\":3632:3659  payingToMessenger[__vendor] */\n      0x00\n        /* \"escrow.sol\":3650:3658  __vendor */\n      dup6\n        /* \"escrow.sol\":3632:3659  payingToMessenger[__vendor] */\n      0xffffffffffffffffffffffffffffffffffffffff\n      and\n      0xffffffffffffffffffffffffffffffffffffffff\n      and\n      dup2\n      mstore\n      0x20\n      add\n      swap1\n      dup2\n      mstore\n      0x20\n      add\n      0x00\n      keccak256\n        /* \"escrow.sol\":3632:3671  payingToMessenger[__vendor][_messenger] */\n      0x00\n        /* \"escrow.sol\":3660:3670  _messenger */\n      dup5\n        /* \"escrow.sol\":3632:3671  payingToMessenger[__vendor][_messenger] */\n      0xffffffffffffffffffffffffffffffffffffffff\n      and\n      0xffffffffffffffffffffffffffffffffffffffff\n      and\n      dup2\n      mstore\n      0x20\n      add\n      swap1\n      dup2\n      mstore\n      0x20\n      add\n      0x00\n      keccak256\n      0x00\n        /* \"escrow.sol\":3632:3681  payingToMessenger[__vendor][_messenger] += amount */\n      dup3\n      dup3\n      sload\n      tag_53\n      swap2\n      swap1\n      tag_37\n      jump\t// in\n    tag_53:\n      swap3\n      pop\n      pop\n      dup2\n      swap1\n      sstore\n      pop\n        /* \"escrow.sol\":3701:3749  feedbackLog(\"withdrawal failed. Money returned\") */\n      0x06169a5f6fdc157bf38af80eecc218b46765eab9ad2d530d9a143fd8501602ef\n      mload(0x40)\n      tag_54\n      swap1\n      tag_55\n      jump\t// in\n    tag_54:\n      mload(0x40)\n      dup1\n      swap2\n      sub\n      swap1\n      log1\n        /* \"escrow.sol\":3454:3761  if(payable(__vendor).send(amount)){\r... */\n    tag_51:\n        /* \"escrow.sol\":3151:3768  {\r... */\n      pop\n        /* \"escrow.sol\":3077:3768  function returnMoneyToVendor(address __vendor, address _messenger) public {\r... */\n      pop\n      pop\n      jump\t// out\n        /* \"escrow.sol\":1477:1623  function getStagedMoney(address vendor, address messenger) public view returns(uint){\r... */\n    tag_19:\n        /* \"escrow.sol\":1556:1560  uint */\n      0x00\n        /* \"escrow.sol\":1579:1596  payingToMessenger */\n      0x02\n        /* \"escrow.sol\":1579:1604  payingToMessenger[vendor] */\n      0x00\n        /* \"escrow.sol\":1597:1603  vendor */\n      dup5\n        /* \"escrow.sol\":1579:1604  payingToMessenger[vendor] */\n      0xffffffffffffffffffffffffffffffffffffffff\n      and\n      0xffffffffffffffffffffffffffffffffffffffff\n      and\n      dup2\n      mstore\n      0x20\n      add\n      swap1\n      dup2\n      mstore\n      0x20\n      add\n      0x00\n      keccak256\n        /* \"escrow.sol\":1579:1615  payingToMessenger[vendor][messenger] */\n      0x00\n        /* \"escrow.sol\":1605:1614  messenger */\n      dup4\n        /* \"escrow.sol\":1579:1615  payingToMessenger[vendor][messenger] */\n      0xffffffffffffffffffffffffffffffffffffffff\n      and\n      0xffffffffffffffffffffffffffffffffffffffff\n      and\n      dup2\n      mstore\n      0x20\n      add\n      swap1\n      dup2\n      mstore\n      0x20\n      add\n      0x00\n      keccak256\n      sload\n        /* \"escrow.sol\":1572:1615  return payingToMessenger[vendor][messenger] */\n      swap1\n      pop\n        /* \"escrow.sol\":1477:1623  function getStagedMoney(address vendor, address messenger) public view returns(uint){\r... */\n      swap3\n      swap2\n      pop\n      pop\n      jump\t// out\n        /* \"escrow.sol\":139:167  address public contractOwner */\n    tag_24:\n      0x00\n      dup1\n      sload\n      swap1\n      0x0100\n      exp\n      swap1\n      div\n      0xffffffffffffffffffffffffffffffffffffffff\n      and\n      dup2\n      jump\t// out\n        /* \"escrow.sol\":1631:2051  function confirmDelivery(bool _isConfirmed, address _vendor, address _messenger) public {\r... */\n    tag_31:\n        /* \"escrow.sol\":1774:1786  _isConfirmed */\n      dup3\n        /* \"escrow.sol\":1732:1750  isPackageDelivered */\n      0x03\n        /* \"escrow.sol\":1732:1759  isPackageDelivered[_vendor] */\n      0x00\n        /* \"escrow.sol\":1751:1758  _vendor */\n      dup5\n        /* \"escrow.sol\":1732:1759  isPackageDelivered[_vendor] */\n      0xffffffffffffffffffffffffffffffffffffffff\n      and\n      0xffffffffffffffffffffffffffffffffffffffff\n      and\n      dup2\n      mstore\n      0x20\n      add\n      swap1\n      dup2\n      mstore\n      0x20\n      add\n      0x00\n      keccak256\n        /* \"escrow.sol\":1732:1771  isPackageDelivered[_vendor][_messenger] */\n      0x00\n        /* \"escrow.sol\":1760:1770  _messenger */\n      dup4\n        /* \"escrow.sol\":1732:1771  isPackageDelivered[_vendor][_messenger] */\n      0xffffffffffffffffffffffffffffffffffffffff\n      and\n      0xffffffffffffffffffffffffffffffffffffffff\n      and\n      dup2\n      mstore\n      0x20\n      add\n      swap1\n      dup2\n      mstore\n      0x20\n      add\n      0x00\n      keccak256\n      0x00\n        /* \"escrow.sol\":1732:1786  isPackageDelivered[_vendor][_messenger] = _isConfirmed */\n      0x0100\n      exp\n      dup2\n      sload\n      dup2\n      0xff\n      mul\n      not\n      and\n      swap1\n      dup4\n      iszero\n      iszero\n      mul\n      or\n      swap1\n      sstore\n      pop\n        /* \"escrow.sol\":1848:1866  isPackageDelivered */\n      0x03\n        /* \"escrow.sol\":1848:1875  isPackageDelivered[_vendor] */\n      0x00\n        /* \"escrow.sol\":1867:1874  _vendor */\n      dup4\n        /* \"escrow.sol\":1848:1875  isPackageDelivered[_vendor] */\n      0xffffffffffffffffffffffffffffffffffffffff\n      and\n      0xffffffffffffffffffffffffffffffffffffffff\n      and\n      dup2\n      mstore\n      0x20\n      add\n      swap1\n      dup2\n      mstore\n      0x20\n      add\n      0x00\n      keccak256\n        /* \"escrow.sol\":1848:1887  isPackageDelivered[_vendor][_messenger] */\n      0x00\n        /* \"escrow.sol\":1876:1886  _messenger */\n      dup3\n        /* \"escrow.sol\":1848:1887  isPackageDelivered[_vendor][_messenger] */\n      0xffffffffffffffffffffffffffffffffffffffff\n      and\n      0xffffffffffffffffffffffffffffffffffffffff\n      and\n      dup2\n      mstore\n      0x20\n      add\n      swap1\n      dup2\n      mstore\n      0x20\n      add\n      0x00\n      keccak256\n      0x00\n      swap1\n      sload\n      swap1\n      0x0100\n      exp\n      swap1\n      div\n      0xff\n      and\n        /* \"escrow.sol\":1845:2044  if(isPackageDelivered[_vendor][_messenger]){\r... */\n      iszero\n      tag_58\n      jumpi\n        /* \"escrow.sol\":1903:1936  payMessenger(_vendor, _messenger) */\n      tag_59\n        /* \"escrow.sol\":1916:1923  _vendor */\n      dup3\n        /* \"escrow.sol\":1925:1935  _messenger */\n      dup3\n        /* \"escrow.sol\":1903:1915  payMessenger */\n      tag_60\n        /* \"escrow.sol\":1903:1936  payMessenger(_vendor, _messenger) */\n      jump\t// in\n    tag_59:\n        /* \"escrow.sol\":1845:2044  if(isPackageDelivered[_vendor][_messenger]){\r... */\n      jump(tag_61)\n    tag_58:\n        /* \"escrow.sol\":1972:2032  feedbackLog(\"Sorry! Your transaction has not been verified\") */\n      0x06169a5f6fdc157bf38af80eecc218b46765eab9ad2d530d9a143fd8501602ef\n      mload(0x40)\n      tag_62\n      swap1\n      tag_63\n      jump\t// in\n    tag_62:\n      mload(0x40)\n      dup1\n      swap2\n      sub\n      swap1\n      log1\n        /* \"escrow.sol\":1845:2044  if(isPackageDelivered[_vendor][_messenger]){\r... */\n    tag_61:\n        /* \"escrow.sol\":1631:2051  function confirmDelivery(bool _isConfirmed, address _vendor, address _messenger) public {\r... */\n      pop\n      pop\n      pop\n      jump\t// out\n        /* \"escrow.sol\":2059:3069  function payMessenger(address _vendor, address _messenger)internal{\r... */\n    tag_60:\n        /* \"escrow.sol\":2179:2197  isPackageDelivered */\n      0x03\n        /* \"escrow.sol\":2179:2206  isPackageDelivered[_vendor] */\n      0x00\n        /* \"escrow.sol\":2198:2205  _vendor */\n      dup4\n        /* \"escrow.sol\":2179:2206  isPackageDelivered[_vendor] */\n      0xffffffffffffffffffffffffffffffffffffffff\n      and\n      0xffffffffffffffffffffffffffffffffffffffff\n      and\n      dup2\n      mstore\n      0x20\n      add\n      swap1\n      dup2\n      mstore\n      0x20\n      add\n      0x00\n      keccak256\n        /* \"escrow.sol\":2179:2218  isPackageDelivered[_vendor][_messenger] */\n      0x00\n        /* \"escrow.sol\":2207:2217  _messenger */\n      dup3\n        /* \"escrow.sol\":2179:2218  isPackageDelivered[_vendor][_messenger] */\n      0xffffffffffffffffffffffffffffffffffffffff\n      and\n      0xffffffffffffffffffffffffffffffffffffffff\n      and\n      dup2\n      mstore\n      0x20\n      add\n      swap1\n      dup2\n      mstore\n      0x20\n      add\n      0x00\n      keccak256\n      0x00\n      swap1\n      sload\n      swap1\n      0x0100\n      exp\n      swap1\n      div\n      0xff\n      and\n        /* \"escrow.sol\":2176:3062  if(isPackageDelivered[_vendor][_messenger]){\r... */\n      iszero\n      tag_65\n      jumpi\n        /* \"escrow.sol\":2295:2311  uint agreedPrice */\n      0x00\n        /* \"escrow.sol\":2314:2331  payingToMessenger */\n      0x02\n        /* \"escrow.sol\":2314:2340  payingToMessenger[_vendor] */\n      0x00\n        /* \"escrow.sol\":2332:2339  _vendor */\n      dup5\n        /* \"escrow.sol\":2314:2340  payingToMessenger[_vendor] */\n      0xffffffffffffffffffffffffffffffffffffffff\n      and\n      0xffffffffffffffffffffffffffffffffffffffff\n      and\n      dup2\n      mstore\n      0x20\n      add\n      swap1\n      dup2\n      mstore\n      0x20\n      add\n      0x00\n      keccak256\n        /* \"escrow.sol\":2314:2352  payingToMessenger[_vendor][_messenger] */\n      0x00\n        /* \"escrow.sol\":2341:2351  _messenger */\n      dup4\n        /* \"escrow.sol\":2314:2352  payingToMessenger[_vendor][_messenger] */\n      0xffffffffffffffffffffffffffffffffffffffff\n      and\n      0xffffffffffffffffffffffffffffffffffffffff\n      and\n      dup2\n      mstore\n      0x20\n      add\n      swap1\n      dup2\n      mstore\n      0x20\n      add\n      0x00\n      keccak256\n      sload\n        /* \"escrow.sol\":2295:2352  uint agreedPrice = payingToMessenger[_vendor][_messenger] */\n      swap1\n      pop\n        /* \"escrow.sol\":2441:2452  agreedPrice */\n      dup1\n        /* \"escrow.sol\":2420:2428  balances */\n      0x01\n        /* \"escrow.sol\":2420:2437  balances[_vendor] */\n      0x00\n        /* \"escrow.sol\":2429:2436  _vendor */\n      dup6\n        /* \"escrow.sol\":2420:2437  balances[_vendor] */\n      0xffffffffffffffffffffffffffffffffffffffff\n      and\n      0xffffffffffffffffffffffffffffffffffffffff\n      and\n      dup2\n      mstore\n      0x20\n      add\n      swap1\n      dup2\n      mstore\n      0x20\n      add\n      0x00\n      keccak256\n      0x00\n        /* \"escrow.sol\":2420:2452  balances[_vendor] -= agreedPrice */\n      dup3\n      dup3\n      sload\n      tag_66\n      swap2\n      swap1\n      tag_46\n      jump\t// in\n    tag_66:\n      swap3\n      pop\n      pop\n      dup2\n      swap1\n      sstore\n      pop\n        /* \"escrow.sol\":2509:2520  agreedPrice */\n      dup1\n        /* \"escrow.sol\":2467:2484  payingToMessenger */\n      0x02\n        /* \"escrow.sol\":2467:2493  payingToMessenger[_vendor] */\n      0x00\n        /* \"escrow.sol\":2485:2492  _vendor */\n      dup6\n        /* \"escrow.sol\":2467:2493  payingToMessenger[_vendor] */\n      0xffffffffffffffffffffffffffffffffffffffff\n      and\n      0xffffffffffffffffffffffffffffffffffffffff\n      and\n      dup2\n      mstore\n      0x20\n      add\n      swap1\n      dup2\n      mstore\n      0x20\n      add\n      0x00\n      keccak256\n        /* \"escrow.sol\":2467:2505  payingToMessenger[_vendor][_messenger] */\n      0x00\n        /* \"escrow.sol\":2494:2504  _messenger */\n      dup5\n        /* \"escrow.sol\":2467:2505  payingToMessenger[_vendor][_messenger] */\n      0xffffffffffffffffffffffffffffffffffffffff\n      and\n      0xffffffffffffffffffffffffffffffffffffffff\n      and\n      dup2\n      mstore\n      0x20\n      add\n      swap1\n      dup2\n      mstore\n      0x20\n      add\n      0x00\n      keccak256\n      0x00\n        /* \"escrow.sol\":2467:2520  payingToMessenger[_vendor][_messenger] -= agreedPrice */\n      dup3\n      dup3\n      sload\n      tag_67\n      swap2\n      swap1\n      tag_46\n      jump\t// in\n    tag_67:\n      swap3\n      pop\n      pop\n      dup2\n      swap1\n      sstore\n      pop\n        /* \"escrow.sol\":2629:2639  _messenger */\n      dup2\n        /* \"escrow.sol\":2621:2645  payable(_messenger).send */\n      0xffffffffffffffffffffffffffffffffffffffff\n      and\n        /* \"escrow.sol\":2621:2658  payable(_messenger).send(agreedPrice) */\n      0x08fc\n        /* \"escrow.sol\":2646:2657  agreedPrice */\n      dup3\n        /* \"escrow.sol\":2621:2658  payable(_messenger).send(agreedPrice) */\n      swap1\n      dup2\n      iszero\n      mul\n      swap1\n      mload(0x40)\n      0x00\n      mload(0x40)\n      dup1\n      dup4\n      sub\n      dup2\n      dup6\n      dup9\n      dup9\n      call\n      swap4\n      pop\n      pop\n      pop\n      pop\n        /* \"escrow.sol\":2618:2975  if(payable(_messenger).send(agreedPrice)){\r... */\n      iszero\n      tag_69\n      jumpi\n        /* \"escrow.sol\":2683:2725  feedbackLog(\"messenger paid successfully\") */\n      0x06169a5f6fdc157bf38af80eecc218b46765eab9ad2d530d9a143fd8501602ef\n      mload(0x40)\n      tag_70\n      swap1\n      tag_71\n      jump\t// in\n    tag_70:\n      mload(0x40)\n      dup1\n      swap2\n      sub\n      swap1\n      log1\n        /* \"escrow.sol\":2618:2975  if(payable(_messenger).send(agreedPrice)){\r... */\n      jump(tag_72)\n    tag_69:\n        /* \"escrow.sol\":2785:2796  agreedPrice */\n      dup1\n        /* \"escrow.sol\":2764:2772  balances */\n      0x01\n        /* \"escrow.sol\":2764:2781  balances[_vendor] */\n      0x00\n        /* \"escrow.sol\":2773:2780  _vendor */\n      dup6\n        /* \"escrow.sol\":2764:2781  balances[_vendor] */\n      0xffffffffffffffffffffffffffffffffffffffff\n      and\n      0xffffffffffffffffffffffffffffffffffffffff\n      and\n      dup2\n      mstore\n      0x20\n      add\n      swap1\n      dup2\n      mstore\n      0x20\n      add\n      0x00\n      keccak256\n      0x00\n        /* \"escrow.sol\":2764:2796  balances[_vendor] += agreedPrice */\n      dup3\n      dup3\n      sload\n      tag_73\n      swap2\n      swap1\n      tag_37\n      jump\t// in\n    tag_73:\n      swap3\n      pop\n      pop\n      dup2\n      swap1\n      sstore\n      pop\n        /* \"escrow.sol\":2857:2868  agreedPrice */\n      dup1\n        /* \"escrow.sol\":2815:2832  payingToMessenger */\n      0x02\n        /* \"escrow.sol\":2815:2841  payingToMessenger[_vendor] */\n      0x00\n        /* \"escrow.sol\":2833:2840  _vendor */\n      dup6\n        /* \"escrow.sol\":2815:2841  payingToMessenger[_vendor] */\n      0xffffffffffffffffffffffffffffffffffffffff\n      and\n      0xffffffffffffffffffffffffffffffffffffffff\n      and\n      dup2\n      mstore\n      0x20\n      add\n      swap1\n      dup2\n      mstore\n      0x20\n      add\n      0x00\n      keccak256\n        /* \"escrow.sol\":2815:2853  payingToMessenger[_vendor][_messenger] */\n      0x00\n        /* \"escrow.sol\":2842:2852  _messenger */\n      dup5\n        /* \"escrow.sol\":2815:2853  payingToMessenger[_vendor][_messenger] */\n      0xffffffffffffffffffffffffffffffffffffffff\n      and\n      0xffffffffffffffffffffffffffffffffffffffff\n      and\n      dup2\n      mstore\n      0x20\n      add\n      swap1\n      dup2\n      mstore\n      0x20\n      add\n      0x00\n      keccak256\n      0x00\n        /* \"escrow.sol\":2815:2868  payingToMessenger[_vendor][_messenger] += agreedPrice */\n      dup3\n      dup3\n      sload\n      tag_74\n      swap2\n      swap1\n      tag_37\n      jump\t// in\n    tag_74:\n      swap3\n      pop\n      pop\n      dup2\n      swap1\n      sstore\n      pop\n        /* \"escrow.sol\":2892:2959  feedbackLog(\"could not pay messenger. Money returned successfully\") */\n      0x06169a5f6fdc157bf38af80eecc218b46765eab9ad2d530d9a143fd8501602ef\n      mload(0x40)\n      tag_75\n      swap1\n      tag_76\n      jump\t// in\n    tag_75:\n      mload(0x40)\n      dup1\n      swap2\n      sub\n      swap1\n      log1\n        /* \"escrow.sol\":2618:2975  if(payable(_messenger).send(agreedPrice)){\r... */\n    tag_72:\n        /* \"escrow.sol\":2219:2986  {\r... */\n      pop\n        /* \"escrow.sol\":2176:3062  if(isPackageDelivered[_vendor][_messenger]){\r... */\n      jump(tag_77)\n    tag_65:\n        /* \"escrow.sol\":3010:3050  feedbackLog(\"Transaction not completed\") */\n      0x06169a5f6fdc157bf38af80eecc218b46765eab9ad2d530d9a143fd8501602ef\n      mload(0x40)\n      tag_78\n      swap1\n      tag_79\n      jump\t// in\n    tag_78:\n      mload(0x40)\n      dup1\n      swap2\n      sub\n      swap1\n      log1\n        /* \"escrow.sol\":2176:3062  if(isPackageDelivered[_vendor][_messenger]){\r... */\n    tag_77:\n        /* \"escrow.sol\":2059:3069  function payMessenger(address _vendor, address _messenger)internal{\r... */\n      pop\n      pop\n      jump\t// out\n        /* \"#utility.yul\":7:419   */\n    tag_81:\n        /* \"#utility.yul\":85:90   */\n      0x00\n        /* \"#utility.yul\":110:176   */\n      tag_83\n        /* \"#utility.yul\":126:175   */\n      tag_84\n        /* \"#utility.yul\":168:174   */\n      dup5\n        /* \"#utility.yul\":126:175   */\n      tag_85\n      jump\t// in\n    tag_84:\n        /* \"#utility.yul\":110:176   */\n      tag_86\n      jump\t// in\n    tag_83:\n        /* \"#utility.yul\":101:176   */\n      swap1\n      pop\n        /* \"#utility.yul\":199:205   */\n      dup3\n        /* \"#utility.yul\":192:197   */\n      dup2\n        /* \"#utility.yul\":185:206   */\n      mstore\n        /* \"#utility.yul\":237:241   */\n      0x20\n        /* \"#utility.yul\":230:235   */\n      dup2\n        /* \"#utility.yul\":226:242   */\n      add\n        /* \"#utility.yul\":275:278   */\n      dup5\n        /* \"#utility.yul\":266:272   */\n      dup5\n        /* \"#utility.yul\":261:264   */\n      dup5\n        /* \"#utility.yul\":257:273   */\n      add\n        /* \"#utility.yul\":254:279   */\n      gt\n        /* \"#utility.yul\":251:363   */\n      iszero\n      tag_87\n      jumpi\n        /* \"#utility.yul\":282:361   */\n      tag_88\n      tag_89\n      jump\t// in\n    tag_88:\n        /* \"#utility.yul\":251:363   */\n    tag_87:\n        /* \"#utility.yul\":372:413   */\n      tag_90\n        /* \"#utility.yul\":406:412   */\n      dup5\n        /* \"#utility.yul\":401:404   */\n      dup3\n        /* \"#utility.yul\":396:399   */\n      dup6\n        /* \"#utility.yul\":372:413   */\n      tag_91\n      jump\t// in\n    tag_90:\n        /* \"#utility.yul\":91:419   */\n      pop\n        /* \"#utility.yul\":7:419   */\n      swap4\n      swap3\n      pop\n      pop\n      pop\n      jump\t// out\n        /* \"#utility.yul\":425:564   */\n    tag_92:\n        /* \"#utility.yul\":471:476   */\n      0x00\n        /* \"#utility.yul\":509:515   */\n      dup2\n        /* \"#utility.yul\":496:516   */\n      calldataload\n        /* \"#utility.yul\":487:516   */\n      swap1\n      pop\n        /* \"#utility.yul\":525:558   */\n      tag_94\n        /* \"#utility.yul\":552:557   */\n      dup2\n        /* \"#utility.yul\":525:558   */\n      tag_95\n      jump\t// in\n    tag_94:\n        /* \"#utility.yul\":425:564   */\n      swap3\n      swap2\n      pop\n      pop\n      jump\t// out\n        /* \"#utility.yul\":570:703   */\n    tag_96:\n        /* \"#utility.yul\":613:618   */\n      0x00\n        /* \"#utility.yul\":651:657   */\n      dup2\n        /* \"#utility.yul\":638:658   */\n      calldataload\n        /* \"#utility.yul\":629:658   */\n      swap1\n      pop\n        /* \"#utility.yul\":667:697   */\n      tag_98\n        /* \"#utility.yul\":691:696   */\n      dup2\n        /* \"#utility.yul\":667:697   */\n      tag_99\n      jump\t// in\n    tag_98:\n        /* \"#utility.yul\":570:703   */\n      swap3\n      swap2\n      pop\n      pop\n      jump\t// out\n        /* \"#utility.yul\":723:1063   */\n    tag_100:\n        /* \"#utility.yul\":779:784   */\n      0x00\n        /* \"#utility.yul\":828:831   */\n      dup3\n        /* \"#utility.yul\":821:825   */\n      0x1f\n        /* \"#utility.yul\":813:819   */\n      dup4\n        /* \"#utility.yul\":809:826   */\n      add\n        /* \"#utility.yul\":805:832   */\n      slt\n        /* \"#utility.yul\":795:917   */\n      tag_102\n      jumpi\n        /* \"#utility.yul\":836:915   */\n      tag_103\n      tag_104\n      jump\t// in\n    tag_103:\n        /* \"#utility.yul\":795:917   */\n    tag_102:\n        /* \"#utility.yul\":953:959   */\n      dup2\n        /* \"#utility.yul\":940:960   */\n      calldataload\n        /* \"#utility.yul\":978:1057   */\n      tag_105\n        /* \"#utility.yul\":1053:1056   */\n      dup5\n        /* \"#utility.yul\":1045:1051   */\n      dup3\n        /* \"#utility.yul\":1038:1042   */\n      0x20\n        /* \"#utility.yul\":1030:1036   */\n      dup7\n        /* \"#utility.yul\":1026:1043   */\n      add\n        /* \"#utility.yul\":978:1057   */\n      tag_81\n      jump\t// in\n    tag_105:\n        /* \"#utility.yul\":969:1057   */\n      swap2\n      pop\n        /* \"#utility.yul\":785:1063   */\n      pop\n        /* \"#utility.yul\":723:1063   */\n      swap3\n      swap2\n      pop\n      pop\n      jump\t// out\n        /* \"#utility.yul\":1069:1543   */\n    tag_14:\n        /* \"#utility.yul\":1137:1143   */\n      0x00\n        /* \"#utility.yul\":1145:1151   */\n      dup1\n        /* \"#utility.yul\":1194:1196   */\n      0x40\n        /* \"#utility.yul\":1182:1191   */\n      dup4\n        /* \"#utility.yul\":1173:1180   */\n      dup6\n        /* \"#utility.yul\":1169:1192   */\n      sub\n        /* \"#utility.yul\":1165:1197   */\n      slt\n        /* \"#utility.yul\":1162:1281   */\n      iszero\n      tag_107\n      jumpi\n        /* \"#utility.yul\":1200:1279   */\n      tag_108\n      tag_109\n      jump\t// in\n    tag_108:\n        /* \"#utility.yul\":1162:1281   */\n    tag_107:\n        /* \"#utility.yul\":1320:1321   */\n      0x00\n        /* \"#utility.yul\":1345:1398   */\n      tag_110\n        /* \"#utility.yul\":1390:1397   */\n      dup6\n        /* \"#utility.yul\":1381:1387   */\n      dup3\n        /* \"#utility.yul\":1370:1379   */\n      dup7\n        /* \"#utility.yul\":1366:1388   */\n      add\n        /* \"#utility.yul\":1345:1398   */\n      tag_92\n      jump\t// in\n    tag_110:\n        /* \"#utility.yul\":1335:1398   */\n      swap3\n      pop\n        /* \"#utility.yul\":1291:1408   */\n      pop\n        /* \"#utility.yul\":1447:1449   */\n      0x20\n        /* \"#utility.yul\":1473:1526   */\n      tag_111\n        /* \"#utility.yul\":1518:1525   */\n      dup6\n        /* \"#utility.yul\":1509:1515   */\n      dup3\n        /* \"#utility.yul\":1498:1507   */\n      dup7\n        /* \"#utility.yul\":1494:1516   */\n      add\n        /* \"#utility.yul\":1473:1526   */\n      tag_92\n      jump\t// in\n    tag_111:\n        /* \"#utility.yul\":1463:1526   */\n      swap2\n      pop\n        /* \"#utility.yul\":1418:1536   */\n      pop\n        /* \"#utility.yul\":1069:1543   */\n      swap3\n      pop\n      swap3\n      swap1\n      pop\n      jump\t// out\n        /* \"#utility.yul\":1549:2203   */\n    tag_9:\n        /* \"#utility.yul\":1627:1633   */\n      0x00\n        /* \"#utility.yul\":1635:1641   */\n      dup1\n        /* \"#utility.yul\":1684:1686   */\n      0x40\n        /* \"#utility.yul\":1672:1681   */\n      dup4\n        /* \"#utility.yul\":1663:1670   */\n      dup6\n        /* \"#utility.yul\":1659:1682   */\n      sub\n        /* \"#utility.yul\":1655:1687   */\n      slt\n        /* \"#utility.yul\":1652:1771   */\n      iszero\n      tag_113\n      jumpi\n        /* \"#utility.yul\":1690:1769   */\n      tag_114\n      tag_109\n      jump\t// in\n    tag_114:\n        /* \"#utility.yul\":1652:1771   */\n    tag_113:\n        /* \"#utility.yul\":1810:1811   */\n      0x00\n        /* \"#utility.yul\":1835:1888   */\n      tag_115\n        /* \"#utility.yul\":1880:1887   */\n      dup6\n        /* \"#utility.yul\":1871:1877   */\n      dup3\n        /* \"#utility.yul\":1860:1869   */\n      dup7\n        /* \"#utility.yul\":1856:1878   */\n      add\n        /* \"#utility.yul\":1835:1888   */\n      tag_92\n      jump\t// in\n    tag_115:\n        /* \"#utility.yul\":1825:1888   */\n      swap3\n      pop\n        /* \"#utility.yul\":1781:1898   */\n      pop\n        /* \"#utility.yul\":1965:1967   */\n      0x20\n        /* \"#utility.yul\":1954:1963   */\n      dup4\n        /* \"#utility.yul\":1950:1968   */\n      add\n        /* \"#utility.yul\":1937:1969   */\n      calldataload\n        /* \"#utility.yul\":1996:2014   */\n      0xffffffffffffffff\n        /* \"#utility.yul\":1988:1994   */\n      dup2\n        /* \"#utility.yul\":1985:2015   */\n      gt\n        /* \"#utility.yul\":1982:2099   */\n      iszero\n      tag_116\n      jumpi\n        /* \"#utility.yul\":2018:2097   */\n      tag_117\n      tag_118\n      jump\t// in\n    tag_117:\n        /* \"#utility.yul\":1982:2099   */\n    tag_116:\n        /* \"#utility.yul\":2123:2186   */\n      tag_119\n        /* \"#utility.yul\":2178:2185   */\n      dup6\n        /* \"#utility.yul\":2169:2175   */\n      dup3\n        /* \"#utility.yul\":2158:2167   */\n      dup7\n        /* \"#utility.yul\":2154:2176   */\n      add\n        /* \"#utility.yul\":2123:2186   */\n      tag_100\n      jump\t// in\n    tag_119:\n        /* \"#utility.yul\":2113:2186   */\n      swap2\n      pop\n        /* \"#utility.yul\":1908:2196   */\n      pop\n        /* \"#utility.yul\":1549:2203   */\n      swap3\n      pop\n      swap3\n      swap1\n      pop\n      jump\t// out\n        /* \"#utility.yul\":2209:2822   */\n    tag_30:\n        /* \"#utility.yul\":2283:2289   */\n      0x00\n        /* \"#utility.yul\":2291:2297   */\n      dup1\n        /* \"#utility.yul\":2299:2305   */\n      0x00\n        /* \"#utility.yul\":2348:2350   */\n      0x60\n        /* \"#utility.yul\":2336:2345   */\n      dup5\n        /* \"#utility.yul\":2327:2334   */\n      dup7\n        /* \"#utility.yul\":2323:2346   */\n      sub\n        /* \"#utility.yul\":2319:2351   */\n      slt\n        /* \"#utility.yul\":2316:2435   */\n      iszero\n      tag_121\n      jumpi\n        /* \"#utility.yul\":2354:2433   */\n      tag_122\n      tag_109\n      jump\t// in\n    tag_122:\n        /* \"#utility.yul\":2316:2435   */\n    tag_121:\n        /* \"#utility.yul\":2474:2475   */\n      0x00\n        /* \"#utility.yul\":2499:2549   */\n      tag_123\n        /* \"#utility.yul\":2541:2548   */\n      dup7\n        /* \"#utility.yul\":2532:2538   */\n      dup3\n        /* \"#utility.yul\":2521:2530   */\n      dup8\n        /* \"#utility.yul\":2517:2539   */\n      add\n        /* \"#utility.yul\":2499:2549   */\n      tag_96\n      jump\t// in\n    tag_123:\n        /* \"#utility.yul\":2489:2549   */\n      swap4\n      pop\n        /* \"#utility.yul\":2445:2559   */\n      pop\n        /* \"#utility.yul\":2598:2600   */\n      0x20\n        /* \"#utility.yul\":2624:2677   */\n      tag_124\n        /* \"#utility.yul\":2669:2676   */\n      dup7\n        /* \"#utility.yul\":2660:2666   */\n      dup3\n        /* \"#utility.yul\":2649:2658   */\n      dup8\n        /* \"#utility.yul\":2645:2667   */\n      add\n        /* \"#utility.yul\":2624:2677   */\n      tag_92\n      jump\t// in\n    tag_124:\n        /* \"#utility.yul\":2614:2677   */\n      swap3\n      pop\n        /* \"#utility.yul\":2569:2687   */\n      pop\n        /* \"#utility.yul\":2726:2728   */\n      0x40\n        /* \"#utility.yul\":2752:2805   */\n      tag_125\n        /* \"#utility.yul\":2797:2804   */\n      dup7\n        /* \"#utility.yul\":2788:2794   */\n      dup3\n        /* \"#utility.yul\":2777:2786   */\n      dup8\n        /* \"#utility.yul\":2773:2795   */\n      add\n        /* \"#utility.yul\":2752:2805   */\n      tag_92\n      jump\t// in\n    tag_125:\n        /* \"#utility.yul\":2742:2805   */\n      swap2\n      pop\n        /* \"#utility.yul\":2697:2815   */\n      pop\n        /* \"#utility.yul\":2209:2822   */\n      swap3\n      pop\n      swap3\n      pop\n      swap3\n      jump\t// out\n        /* \"#utility.yul\":2828:2946   */\n    tag_126:\n        /* \"#utility.yul\":2915:2939   */\n      tag_128\n        /* \"#utility.yul\":2933:2938   */\n      dup2\n        /* \"#utility.yul\":2915:2939   */\n      tag_129\n      jump\t// in\n    tag_128:\n        /* \"#utility.yul\":2910:2913   */\n      dup3\n        /* \"#utility.yul\":2903:2940   */\n      mstore\n        /* \"#utility.yul\":2828:2946   */\n      pop\n      pop\n      jump\t// out\n        /* \"#utility.yul\":2952:3316   */\n    tag_130:\n        /* \"#utility.yul\":3040:3043   */\n      0x00\n        /* \"#utility.yul\":3068:3107   */\n      tag_132\n        /* \"#utility.yul\":3101:3106   */\n      dup3\n        /* \"#utility.yul\":3068:3107   */\n      tag_133\n      jump\t// in\n    tag_132:\n        /* \"#utility.yul\":3123:3194   */\n      tag_134\n        /* \"#utility.yul\":3187:3193   */\n      dup2\n        /* \"#utility.yul\":3182:3185   */\n      dup6\n        /* \"#utility.yul\":3123:3194   */\n      tag_135\n      jump\t// in\n    tag_134:\n        /* \"#utility.yul\":3116:3194   */\n      swap4\n      pop\n        /* \"#utility.yul\":3203:3255   */\n      tag_136\n        /* \"#utility.yul\":3248:3254   */\n      dup2\n        /* \"#utility.yul\":3243:3246   */\n      dup6\n        /* \"#utility.yul\":3236:3240   */\n      0x20\n        /* \"#utility.yul\":3229:3234   */\n      dup7\n        /* \"#utility.yul\":3225:3241   */\n      add\n        /* \"#utility.yul\":3203:3255   */\n      tag_137\n      jump\t// in\n    tag_136:\n        /* \"#utility.yul\":3280:3309   */\n      tag_138\n        /* \"#utility.yul\":3302:3308   */\n      dup2\n        /* \"#utility.yul\":3280:3309   */\n      tag_139\n      jump\t// in\n    tag_138:\n        /* \"#utility.yul\":3275:3278   */\n      dup5\n        /* \"#utility.yul\":3271:3310   */\n      add\n        /* \"#utility.yul\":3264:3310   */\n      swap2\n      pop\n        /* \"#utility.yul\":3044:3316   */\n      pop\n        /* \"#utility.yul\":2952:3316   */\n      swap3\n      swap2\n      pop\n      pop\n      jump\t// out\n        /* \"#utility.yul\":3322:3688   */\n    tag_140:\n        /* \"#utility.yul\":3464:3467   */\n      0x00\n        /* \"#utility.yul\":3485:3552   */\n      tag_142\n        /* \"#utility.yul\":3549:3551   */\n      0x14\n        /* \"#utility.yul\":3544:3547   */\n      dup4\n        /* \"#utility.yul\":3485:3552   */\n      tag_135\n      jump\t// in\n    tag_142:\n        /* \"#utility.yul\":3478:3552   */\n      swap2\n      pop\n        /* \"#utility.yul\":3561:3654   */\n      tag_143\n        /* \"#utility.yul\":3650:3653   */\n      dup3\n        /* \"#utility.yul\":3561:3654   */\n      tag_144\n      jump\t// in\n    tag_143:\n        /* \"#utility.yul\":3679:3681   */\n      0x20\n        /* \"#utility.yul\":3674:3677   */\n      dup3\n        /* \"#utility.yul\":3670:3682   */\n      add\n        /* \"#utility.yul\":3663:3682   */\n      swap1\n      pop\n        /* \"#utility.yul\":3322:3688   */\n      swap2\n      swap1\n      pop\n      jump\t// out\n        /* \"#utility.yul\":3694:4060   */\n    tag_145:\n        /* \"#utility.yul\":3836:3839   */\n      0x00\n        /* \"#utility.yul\":3857:3924   */\n      tag_147\n        /* \"#utility.yul\":3921:3923   */\n      0x21\n        /* \"#utility.yul\":3916:3919   */\n      dup4\n        /* \"#utility.yul\":3857:3924   */\n      tag_135\n      jump\t// in\n    tag_147:\n        /* \"#utility.yul\":3850:3924   */\n      swap2\n      pop\n        /* \"#utility.yul\":3933:4026   */\n      tag_148\n        /* \"#utility.yul\":4022:4025   */\n      dup3\n        /* \"#utility.yul\":3933:4026   */\n      tag_149\n      jump\t// in\n    tag_148:\n        /* \"#utility.yul\":4051:4053   */\n      0x40\n        /* \"#utility.yul\":4046:4049   */\n      dup3\n        /* \"#utility.yul\":4042:4054   */\n      add\n        /* \"#utility.yul\":4035:4054   */\n      swap1\n      pop\n        /* \"#utility.yul\":3694:4060   */\n      swap2\n      swap1\n      pop\n      jump\t// out\n        /* \"#utility.yul\":4066:4432   */\n    tag_150:\n        /* \"#utility.yul\":4208:4211   */\n      0x00\n        /* \"#utility.yul\":4229:4296   */\n      tag_152\n        /* \"#utility.yul\":4293:4295   */\n      0x15\n        /* \"#utility.yul\":4288:4291   */\n      dup4\n        /* \"#utility.yul\":4229:4296   */\n      tag_135\n      jump\t// in\n    tag_152:\n        /* \"#utility.yul\":4222:4296   */\n      swap2\n      pop\n        /* \"#utility.yul\":4305:4398   */\n      tag_153\n        /* \"#utility.yul\":4394:4397   */\n      dup3\n        /* \"#utility.yul\":4305:4398   */\n      tag_154\n      jump\t// in\n    tag_153:\n        /* \"#utility.yul\":4423:4425   */\n      0x20\n        /* \"#utility.yul\":4418:4421   */\n      dup3\n        /* \"#utility.yul\":4414:4426   */\n      add\n        /* \"#utility.yul\":4407:4426   */\n      swap1\n      pop\n        /* \"#utility.yul\":4066:4432   */\n      swap2\n      swap1\n      pop\n      jump\t// out\n        /* \"#utility.yul\":4438:4804   */\n    tag_155:\n        /* \"#utility.yul\":4580:4583   */\n      0x00\n        /* \"#utility.yul\":4601:4668   */\n      tag_157\n        /* \"#utility.yul\":4665:4667   */\n      0x2d\n        /* \"#utility.yul\":4660:4663   */\n      dup4\n        /* \"#utility.yul\":4601:4668   */\n      tag_135\n      jump\t// in\n    tag_157:\n        /* \"#utility.yul\":4594:4668   */\n      swap2\n      pop\n        /* \"#utility.yul\":4677:4770   */\n      tag_158\n        /* \"#utility.yul\":4766:4769   */\n      dup3\n        /* \"#utility.yul\":4677:4770   */\n      tag_159\n      jump\t// in\n    tag_158:\n        /* \"#utility.yul\":4795:4797   */\n      0x40\n        /* \"#utility.yul\":4790:4793   */\n      dup3\n        /* \"#utility.yul\":4786:4798   */\n      add\n        /* \"#utility.yul\":4779:4798   */\n      swap1\n      pop\n        /* \"#utility.yul\":4438:4804   */\n      swap2\n      swap1\n      pop\n      jump\t// out\n        /* \"#utility.yul\":4810:5176   */\n    tag_160:\n        /* \"#utility.yul\":4952:4955   */\n      0x00\n        /* \"#utility.yul\":4973:5040   */\n      tag_162\n        /* \"#utility.yul\":5037:5039   */\n      0x34\n        /* \"#utility.yul\":5032:5035   */\n      dup4\n        /* \"#utility.yul\":4973:5040   */\n      tag_135\n      jump\t// in\n    tag_162:\n        /* \"#utility.yul\":4966:5040   */\n      swap2\n      pop\n        /* \"#utility.yul\":5049:5142   */\n      tag_163\n        /* \"#utility.yul\":5138:5141   */\n      dup3\n        /* \"#utility.yul\":5049:5142   */\n      tag_164\n      jump\t// in\n    tag_163:\n        /* \"#utility.yul\":5167:5169   */\n      0x40\n        /* \"#utility.yul\":5162:5165   */\n      dup3\n        /* \"#utility.yul\":5158:5170   */\n      add\n        /* \"#utility.yul\":5151:5170   */\n      swap1\n      pop\n        /* \"#utility.yul\":4810:5176   */\n      swap2\n      swap1\n      pop\n      jump\t// out\n        /* \"#utility.yul\":5182:5548   */\n    tag_165:\n        /* \"#utility.yul\":5324:5327   */\n      0x00\n        /* \"#utility.yul\":5345:5412   */\n      tag_167\n        /* \"#utility.yul\":5409:5411   */\n      0x1b\n        /* \"#utility.yul\":5404:5407   */\n      dup4\n        /* \"#utility.yul\":5345:5412   */\n      tag_135\n      jump\t// in\n    tag_167:\n        /* \"#utility.yul\":5338:5412   */\n      swap2\n      pop\n        /* \"#utility.yul\":5421:5514   */\n      tag_168\n        /* \"#utility.yul\":5510:5513   */\n      dup3\n        /* \"#utility.yul\":5421:5514   */\n      tag_169\n      jump\t// in\n    tag_168:\n        /* \"#utility.yul\":5539:5541   */\n      0x20\n        /* \"#utility.yul\":5534:5537   */\n      dup3\n        /* \"#utility.yul\":5530:5542   */\n      add\n        /* \"#utility.yul\":5523:5542   */\n      swap1\n      pop\n        /* \"#utility.yul\":5182:5548   */\n      swap2\n      swap1\n      pop\n      jump\t// out\n        /* \"#utility.yul\":5554:5920   */\n    tag_170:\n        /* \"#utility.yul\":5696:5699   */\n      0x00\n        /* \"#utility.yul\":5717:5784   */\n      tag_172\n        /* \"#utility.yul\":5781:5783   */\n      0x16\n        /* \"#utility.yul\":5776:5779   */\n      dup4\n        /* \"#utility.yul\":5717:5784   */\n      tag_135\n      jump\t// in\n    tag_172:\n        /* \"#utility.yul\":5710:5784   */\n      swap2\n      pop\n        /* \"#utility.yul\":5793:5886   */\n      tag_173\n        /* \"#utility.yul\":5882:5885   */\n      dup3\n        /* \"#utility.yul\":5793:5886   */\n      tag_174\n      jump\t// in\n    tag_173:\n        /* \"#utility.yul\":5911:5913   */\n      0x20\n        /* \"#utility.yul\":5906:5909   */\n      dup3\n        /* \"#utility.yul\":5902:5914   */\n      add\n        /* \"#utility.yul\":5895:5914   */\n      swap1\n      pop\n        /* \"#utility.yul\":5554:5920   */\n      swap2\n      swap1\n      pop\n      jump\t// out\n        /* \"#utility.yul\":5926:6292   */\n    tag_175:\n        /* \"#utility.yul\":6068:6071   */\n      0x00\n        /* \"#utility.yul\":6089:6156   */\n      tag_177\n        /* \"#utility.yul\":6153:6155   */\n      0x19\n        /* \"#utility.yul\":6148:6151   */\n      dup4\n        /* \"#utility.yul\":6089:6156   */\n      tag_135\n      jump\t// in\n    tag_177:\n        /* \"#utility.yul\":6082:6156   */\n      swap2\n      pop\n        /* \"#utility.yul\":6165:6258   */\n      tag_178\n        /* \"#utility.yul\":6254:6257   */\n      dup3\n        /* \"#utility.yul\":6165:6258   */\n      tag_179\n      jump\t// in\n    tag_178:\n        /* \"#utility.yul\":6283:6285   */\n      0x20\n        /* \"#utility.yul\":6278:6281   */\n      dup3\n        /* \"#utility.yul\":6274:6286   */\n      add\n        /* \"#utility.yul\":6267:6286   */\n      swap1\n      pop\n        /* \"#utility.yul\":5926:6292   */\n      swap2\n      swap1\n      pop\n      jump\t// out\n        /* \"#utility.yul\":6298:6416   */\n    tag_180:\n        /* \"#utility.yul\":6385:6409   */\n      tag_182\n        /* \"#utility.yul\":6403:6408   */\n      dup2\n        /* \"#utility.yul\":6385:6409   */\n      tag_183\n      jump\t// in\n    tag_182:\n        /* \"#utility.yul\":6380:6383   */\n      dup3\n        /* \"#utility.yul\":6373:6410   */\n      mstore\n        /* \"#utility.yul\":6298:6416   */\n      pop\n      pop\n      jump\t// out\n        /* \"#utility.yul\":6422:6644   */\n    tag_26:\n        /* \"#utility.yul\":6515:6519   */\n      0x00\n        /* \"#utility.yul\":6553:6555   */\n      0x20\n        /* \"#utility.yul\":6542:6551   */\n      dup3\n        /* \"#utility.yul\":6538:6556   */\n      add\n        /* \"#utility.yul\":6530:6556   */\n      swap1\n      pop\n        /* \"#utility.yul\":6566:6637   */\n      tag_185\n        /* \"#utility.yul\":6634:6635   */\n      0x00\n        /* \"#utility.yul\":6623:6632   */\n      dup4\n        /* \"#utility.yul\":6619:6636   */\n      add\n        /* \"#utility.yul\":6610:6616   */\n      dup5\n        /* \"#utility.yul\":6566:6637   */\n      tag_126\n      jump\t// in\n    tag_185:\n        /* \"#utility.yul\":6422:6644   */\n      swap3\n      swap2\n      pop\n      pop\n      jump\t// out\n        /* \"#utility.yul\":6650:6963   */\n    tag_40:\n        /* \"#utility.yul\":6763:6767   */\n      0x00\n        /* \"#utility.yul\":6801:6803   */\n      0x20\n        /* \"#utility.yul\":6790:6799   */\n      dup3\n        /* \"#utility.yul\":6786:6804   */\n      add\n        /* \"#utility.yul\":6778:6804   */\n      swap1\n      pop\n        /* \"#utility.yul\":6850:6859   */\n      dup2\n        /* \"#utility.yul\":6844:6848   */\n      dup2\n        /* \"#utility.yul\":6840:6860   */\n      sub\n        /* \"#utility.yul\":6836:6837   */\n      0x00\n        /* \"#utility.yul\":6825:6834   */\n      dup4\n        /* \"#utility.yul\":6821:6838   */\n      add\n        /* \"#utility.yul\":6814:6861   */\n      mstore\n        /* \"#utility.yul\":6878:6956   */\n      tag_187\n        /* \"#utility.yul\":6951:6955   */\n      dup2\n        /* \"#utility.yul\":6942:6948   */\n      dup5\n        /* \"#utility.yul\":6878:6956   */\n      tag_130\n      jump\t// in\n    tag_187:\n        /* \"#utility.yul\":6870:6956   */\n      swap1\n      pop\n        /* \"#utility.yul\":6650:6963   */\n      swap3\n      swap2\n      pop\n      pop\n      jump\t// out\n        /* \"#utility.yul\":6969:7388   */\n    tag_35:\n        /* \"#utility.yul\":7135:7139   */\n      0x00\n        /* \"#utility.yul\":7173:7175   */\n      0x20\n        /* \"#utility.yul\":7162:7171   */\n      dup3\n        /* \"#utility.yul\":7158:7176   */\n      add\n        /* \"#utility.yul\":7150:7176   */\n      swap1\n      pop\n        /* \"#utility.yul\":7222:7231   */\n      dup2\n        /* \"#utility.yul\":7216:7220   */\n      dup2\n        /* \"#utility.yul\":7212:7232   */\n      sub\n        /* \"#utility.yul\":7208:7209   */\n      0x00\n        /* \"#utility.yul\":7197:7206   */\n      dup4\n        /* \"#utility.yul\":7193:7210   */\n      add\n        /* \"#utility.yul\":7186:7233   */\n      mstore\n        /* \"#utility.yul\":7250:7381   */\n      tag_189\n        /* \"#utility.yul\":7376:7380   */\n      dup2\n        /* \"#utility.yul\":7250:7381   */\n      tag_140\n      jump\t// in\n    tag_189:\n        /* \"#utility.yul\":7242:7381   */\n      swap1\n      pop\n        /* \"#utility.yul\":6969:7388   */\n      swap2\n      swap1\n      pop\n      jump\t// out\n        /* \"#utility.yul\":7394:7813   */\n    tag_55:\n        /* \"#utility.yul\":7560:7564   */\n      0x00\n        /* \"#utility.yul\":7598:7600   */\n      0x20\n        /* \"#utility.yul\":7587:7596   */\n      dup3\n        /* \"#utility.yul\":7583:7601   */\n      add\n        /* \"#utility.yul\":7575:7601   */\n      swap1\n      pop\n        /* \"#utility.yul\":7647:7656   */\n      dup2\n        /* \"#utility.yul\":7641:7645   */\n      dup2\n        /* \"#utility.yul\":7637:7657   */\n      sub\n        /* \"#utility.yul\":7633:7634   */\n      0x00\n        /* \"#utility.yul\":7622:7631   */\n      dup4\n        /* \"#utility.yul\":7618:7635   */\n      add\n        /* \"#utility.yul\":7611:7658   */\n      mstore\n        /* \"#utility.yul\":7675:7806   */\n      tag_191\n        /* \"#utility.yul\":7801:7805   */\n      dup2\n        /* \"#utility.yul\":7675:7806   */\n      tag_145\n      jump\t// in\n    tag_191:\n        /* \"#utility.yul\":7667:7806   */\n      swap1\n      pop\n        /* \"#utility.yul\":7394:7813   */\n      swap2\n      swap1\n      pop\n      jump\t// out\n        /* \"#utility.yul\":7819:8238   */\n    tag_50:\n        /* \"#utility.yul\":7985:7989   */\n      0x00\n        /* \"#utility.yul\":8023:8025   */\n      0x20\n        /* \"#utility.yul\":8012:8021   */\n      dup3\n        /* \"#utility.yul\":8008:8026   */\n      add\n        /* \"#utility.yul\":8000:8026   */\n      swap1\n      pop\n        /* \"#utility.yul\":8072:8081   */\n      dup2\n        /* \"#utility.yul\":8066:8070   */\n      dup2\n        /* \"#utility.yul\":8062:8082   */\n      sub\n        /* \"#utility.yul\":8058:8059   */\n      0x00\n        /* \"#utility.yul\":8047:8056   */\n      dup4\n        /* \"#utility.yul\":8043:8060   */\n      add\n        /* \"#utility.yul\":8036:8083   */\n      mstore\n        /* \"#utility.yul\":8100:8231   */\n      tag_193\n        /* \"#utility.yul\":8226:8230   */\n      dup2\n        /* \"#utility.yul\":8100:8231   */\n      tag_150\n      jump\t// in\n    tag_193:\n        /* \"#utility.yul\":8092:8231   */\n      swap1\n      pop\n        /* \"#utility.yul\":7819:8238   */\n      swap2\n      swap1\n      pop\n      jump\t// out\n        /* \"#utility.yul\":8244:8663   */\n    tag_63:\n        /* \"#utility.yul\":8410:8414   */\n      0x00\n        /* \"#utility.yul\":8448:8450   */\n      0x20\n        /* \"#utility.yul\":8437:8446   */\n      dup3\n        /* \"#utility.yul\":8433:8451   */\n      add\n        /* \"#utility.yul\":8425:8451   */\n      swap1\n      pop\n        /* \"#utility.yul\":8497:8506   */\n      dup2\n        /* \"#utility.yul\":8491:8495   */\n      dup2\n        /* \"#utility.yul\":8487:8507   */\n      sub\n        /* \"#utility.yul\":8483:8484   */\n      0x00\n        /* \"#utility.yul\":8472:8481   */\n      dup4\n        /* \"#utility.yul\":8468:8485   */\n      add\n        /* \"#utility.yul\":8461:8508   */\n      mstore\n        /* \"#utility.yul\":8525:8656   */\n      tag_195\n        /* \"#utility.yul\":8651:8655   */\n      dup2\n        /* \"#utility.yul\":8525:8656   */\n      tag_155\n      jump\t// in\n    tag_195:\n        /* \"#utility.yul\":8517:8656   */\n      swap1\n      pop\n        /* \"#utility.yul\":8244:8663   */\n      swap2\n      swap1\n      pop\n      jump\t// out\n        /* \"#utility.yul\":8669:9088   */\n    tag_76:\n        /* \"#utility.yul\":8835:8839   */\n      0x00\n        /* \"#utility.yul\":8873:8875   */\n      0x20\n        /* \"#utility.yul\":8862:8871   */\n      dup3\n        /* \"#utility.yul\":8858:8876   */\n      add\n        /* \"#utility.yul\":8850:8876   */\n      swap1\n      pop\n        /* \"#utility.yul\":8922:8931   */\n      dup2\n        /* \"#utility.yul\":8916:8920   */\n      dup2\n        /* \"#utility.yul\":8912:8932   */\n      sub\n        /* \"#utility.yul\":8908:8909   */\n      0x00\n        /* \"#utility.yul\":8897:8906   */\n      dup4\n        /* \"#utility.yul\":8893:8910   */\n      add\n        /* \"#utility.yul\":8886:8933   */\n      mstore\n        /* \"#utility.yul\":8950:9081   */\n      tag_197\n        /* \"#utility.yul\":9076:9080   */\n      dup2\n        /* \"#utility.yul\":8950:9081   */\n      tag_160\n      jump\t// in\n    tag_197:\n        /* \"#utility.yul\":8942:9081   */\n      swap1\n      pop\n        /* \"#utility.yul\":8669:9088   */\n      swap2\n      swap1\n      pop\n      jump\t// out\n        /* \"#utility.yul\":9094:9513   */\n    tag_71:\n        /* \"#utility.yul\":9260:9264   */\n      0x00\n        /* \"#utility.yul\":9298:9300   */\n      0x20\n        /* \"#utility.yul\":9287:9296   */\n      dup3\n        /* \"#utility.yul\":9283:9301   */\n      add\n        /* \"#utility.yul\":9275:9301   */\n      swap1\n      pop\n        /* \"#utility.yul\":9347:9356   */\n      dup2\n        /* \"#utility.yul\":9341:9345   */\n      dup2\n        /* \"#utility.yul\":9337:9357   */\n      sub\n        /* \"#utility.yul\":9333:9334   */\n      0x00\n        /* \"#utility.yul\":9322:9331   */\n      dup4\n        /* \"#utility.yul\":9318:9335   */\n      add\n        /* \"#utility.yul\":9311:9358   */\n      mstore\n        /* \"#utility.yul\":9375:9506   */\n      tag_199\n        /* \"#utility.yul\":9501:9505   */\n      dup2\n        /* \"#utility.yul\":9375:9506   */\n      tag_165\n      jump\t// in\n    tag_199:\n        /* \"#utility.yul\":9367:9506   */\n      swap1\n      pop\n        /* \"#utility.yul\":9094:9513   */\n      swap2\n      swap1\n      pop\n      jump\t// out\n        /* \"#utility.yul\":9519:9938   */\n    tag_44:\n        /* \"#utility.yul\":9685:9689   */\n      0x00\n        /* \"#utility.yul\":9723:9725   */\n      0x20\n        /* \"#utility.yul\":9712:9721   */\n      dup3\n        /* \"#utility.yul\":9708:9726   */\n      add\n        /* \"#utility.yul\":9700:9726   */\n      swap1\n      pop\n        /* \"#utility.yul\":9772:9781   */\n      dup2\n        /* \"#utility.yul\":9766:9770   */\n      dup2\n        /* \"#utility.yul\":9762:9782   */\n      sub\n        /* \"#utility.yul\":9758:9759   */\n      0x00\n        /* \"#utility.yul\":9747:9756   */\n      dup4\n        /* \"#utility.yul\":9743:9760   */\n      add\n        /* \"#utility.yul\":9736:9783   */\n      mstore\n        /* \"#utility.yul\":9800:9931   */\n      tag_201\n        /* \"#utility.yul\":9926:9930   */\n      dup2\n        /* \"#utility.yul\":9800:9931   */\n      tag_170\n      jump\t// in\n    tag_201:\n        /* \"#utility.yul\":9792:9931   */\n      swap1\n      pop\n        /* \"#utility.yul\":9519:9938   */\n      swap2\n      swap1\n      pop\n      jump\t// out\n        /* \"#utility.yul\":9944:10363   */\n    tag_79:\n        /* \"#utility.yul\":10110:10114   */\n      0x00\n        /* \"#utility.yul\":10148:10150   */\n      0x20\n        /* \"#utility.yul\":10137:10146   */\n      dup3\n        /* \"#utility.yul\":10133:10151   */\n      add\n        /* \"#utility.yul\":10125:10151   */\n      swap1\n      pop\n        /* \"#utility.yul\":10197:10206   */\n      dup2\n        /* \"#utility.yul\":10191:10195   */\n      dup2\n        /* \"#utility.yul\":10187:10207   */\n      sub\n        /* \"#utility.yul\":10183:10184   */\n      0x00\n        /* \"#utility.yul\":10172:10181   */\n      dup4\n        /* \"#utility.yul\":10168:10185   */\n      add\n        /* \"#utility.yul\":10161:10208   */\n      mstore\n        /* \"#utility.yul\":10225:10356   */\n      tag_203\n        /* \"#utility.yul\":10351:10355   */\n      dup2\n        /* \"#utility.yul\":10225:10356   */\n      tag_175\n      jump\t// in\n    tag_203:\n        /* \"#utility.yul\":10217:10356   */\n      swap1\n      pop\n        /* \"#utility.yul\":9944:10363   */\n      swap2\n      swap1\n      pop\n      jump\t// out\n        /* \"#utility.yul\":10369:10591   */\n    tag_21:\n        /* \"#utility.yul\":10462:10466   */\n      0x00\n        /* \"#utility.yul\":10500:10502   */\n      0x20\n        /* \"#utility.yul\":10489:10498   */\n      dup3\n        /* \"#utility.yul\":10485:10503   */\n      add\n        /* \"#utility.yul\":10477:10503   */\n      swap1\n      pop\n        /* \"#utility.yul\":10513:10584   */\n      tag_205\n        /* \"#utility.yul\":10581:10582   */\n      0x00\n        /* \"#utility.yul\":10570:10579   */\n      dup4\n        /* \"#utility.yul\":10566:10583   */\n      add\n        /* \"#utility.yul\":10557:10563   */\n      dup5\n        /* \"#utility.yul\":10513:10584   */\n      tag_180\n      jump\t// in\n    tag_205:\n        /* \"#utility.yul\":10369:10591   */\n      swap3\n      swap2\n      pop\n      pop\n      jump\t// out\n        /* \"#utility.yul\":10597:10726   */\n    tag_86:\n        /* \"#utility.yul\":10631:10637   */\n      0x00\n        /* \"#utility.yul\":10658:10678   */\n      tag_207\n      tag_208\n      jump\t// in\n    tag_207:\n        /* \"#utility.yul\":10648:10678   */\n      swap1\n      pop\n        /* \"#utility.yul\":10687:10720   */\n      tag_209\n        /* \"#utility.yul\":10715:10719   */\n      dup3\n        /* \"#utility.yul\":10707:10713   */\n      dup3\n        /* \"#utility.yul\":10687:10720   */\n      tag_210\n      jump\t// in\n    tag_209:\n        /* \"#utility.yul\":10597:10726   */\n      swap2\n      swap1\n      pop\n      jump\t// out\n        /* \"#utility.yul\":10732:10807   */\n    tag_208:\n        /* \"#utility.yul\":10765:10771   */\n      0x00\n        /* \"#utility.yul\":10798:10800   */\n      0x40\n        /* \"#utility.yul\":10792:10801   */\n      mload\n        /* \"#utility.yul\":10782:10801   */\n      swap1\n      pop\n        /* \"#utility.yul\":10732:10807   */\n      swap1\n      jump\t// out\n        /* \"#utility.yul\":10813:11121   */\n    tag_85:\n        /* \"#utility.yul\":10875:10879   */\n      0x00\n        /* \"#utility.yul\":10965:10983   */\n      0xffffffffffffffff\n        /* \"#utility.yul\":10957:10963   */\n      dup3\n        /* \"#utility.yul\":10954:10984   */\n      gt\n        /* \"#utility.yul\":10951:11007   */\n      iszero\n      tag_213\n      jumpi\n        /* \"#utility.yul\":10987:11005   */\n      tag_214\n      tag_215\n      jump\t// in\n    tag_214:\n        /* \"#utility.yul\":10951:11007   */\n    tag_213:\n        /* \"#utility.yul\":11025:11054   */\n      tag_216\n        /* \"#utility.yul\":11047:11053   */\n      dup3\n        /* \"#utility.yul\":11025:11054   */\n      tag_139\n      jump\t// in\n    tag_216:\n        /* \"#utility.yul\":11017:11054   */\n      swap1\n      pop\n        /* \"#utility.yul\":11109:11113   */\n      0x20\n        /* \"#utility.yul\":11103:11107   */\n      dup2\n        /* \"#utility.yul\":11099:11114   */\n      add\n        /* \"#utility.yul\":11091:11114   */\n      swap1\n      pop\n        /* \"#utility.yul\":10813:11121   */\n      swap2\n      swap1\n      pop\n      jump\t// out\n        /* \"#utility.yul\":11127:11226   */\n    tag_133:\n        /* \"#utility.yul\":11179:11185   */\n      0x00\n        /* \"#utility.yul\":11213:11218   */\n      dup2\n        /* \"#utility.yul\":11207:11219   */\n      mload\n        /* \"#utility.yul\":11197:11219   */\n      swap1\n      pop\n        /* \"#utility.yul\":11127:11226   */\n      swap2\n      swap1\n      pop\n      jump\t// out\n        /* \"#utility.yul\":11232:11401   */\n    tag_135:\n        /* \"#utility.yul\":11316:11327   */\n      0x00\n        /* \"#utility.yul\":11350:11356   */\n      dup3\n        /* \"#utility.yul\":11345:11348   */\n      dup3\n        /* \"#utility.yul\":11338:11357   */\n      mstore\n        /* \"#utility.yul\":11390:11394   */\n      0x20\n        /* \"#utility.yul\":11385:11388   */\n      dup3\n        /* \"#utility.yul\":11381:11395   */\n      add\n        /* \"#utility.yul\":11366:11395   */\n      swap1\n      pop\n        /* \"#utility.yul\":11232:11401   */\n      swap3\n      swap2\n      pop\n      pop\n      jump\t// out\n        /* \"#utility.yul\":11407:11712   */\n    tag_37:\n        /* \"#utility.yul\":11447:11450   */\n      0x00\n        /* \"#utility.yul\":11466:11486   */\n      tag_220\n        /* \"#utility.yul\":11484:11485   */\n      dup3\n        /* \"#utility.yul\":11466:11486   */\n      tag_183\n      jump\t// in\n    tag_220:\n        /* \"#utility.yul\":11461:11486   */\n      swap2\n      pop\n        /* \"#utility.yul\":11500:11520   */\n      tag_221\n        /* \"#utility.yul\":11518:11519   */\n      dup4\n        /* \"#utility.yul\":11500:11520   */\n      tag_183\n      jump\t// in\n    tag_221:\n        /* \"#utility.yul\":11495:11520   */\n      swap3\n      pop\n        /* \"#utility.yul\":11654:11655   */\n      dup3\n        /* \"#utility.yul\":11586:11652   */\n      0xffffffffffffffffffffffffffffffffffffffffffffffffffffffffffffffff\n        /* \"#utility.yul\":11582:11656   */\n      sub\n        /* \"#utility.yul\":11579:11580   */\n      dup3\n        /* \"#utility.yul\":11576:11657   */\n      gt\n        /* \"#utility.yul\":11573:11680   */\n      iszero\n      tag_222\n      jumpi\n        /* \"#utility.yul\":11660:11678   */\n      tag_223\n      tag_224\n      jump\t// in\n    tag_223:\n        /* \"#utility.yul\":11573:11680   */\n    tag_222:\n        /* \"#utility.yul\":11704:11705   */\n      dup3\n        /* \"#utility.yul\":11701:11702   */\n      dup3\n        /* \"#utility.yul\":11697:11706   */\n      add\n        /* \"#utility.yul\":11690:11706   */\n      swap1\n      pop\n        /* \"#utility.yul\":11407:11712   */\n      swap3\n      swap2\n      pop\n      pop\n      jump\t// out\n        /* \"#utility.yul\":11718:11909   */\n    tag_46:\n        /* \"#utility.yul\":11758:11762   */\n      0x00\n        /* \"#utility.yul\":11778:11798   */\n      tag_226\n        /* \"#utility.yul\":11796:11797   */\n      dup3\n        /* \"#utility.yul\":11778:11798   */\n      tag_183\n      jump\t// in\n    tag_226:\n        /* \"#utility.yul\":11773:11798   */\n      swap2\n      pop\n        /* \"#utility.yul\":11812:11832   */\n      tag_227\n        /* \"#utility.yul\":11830:11831   */\n      dup4\n        /* \"#utility.yul\":11812:11832   */\n      tag_183\n      jump\t// in\n    tag_227:\n        /* \"#utility.yul\":11807:11832   */\n      swap3\n      pop\n        /* \"#utility.yul\":11851:11852   */\n      dup3\n        /* \"#utility.yul\":11848:11849   */\n      dup3\n        /* \"#utility.yul\":11845:11853   */\n      lt\n        /* \"#utility.yul\":11842:11876   */\n      iszero\n      tag_228\n      jumpi\n        /* \"#utility.yul\":11856:11874   */\n      tag_229\n      tag_224\n      jump\t// in\n    tag_229:\n        /* \"#utility.yul\":11842:11876   */\n    tag_228:\n        /* \"#utility.yul\":11901:11902   */\n      dup3\n        /* \"#utility.yul\":11898:11899   */\n      dup3\n        /* \"#utility.yul\":11894:11903   */\n      sub\n        /* \"#utility.yul\":11886:11903   */\n      swap1\n      pop\n        /* \"#utility.yul\":11718:11909   */\n      swap3\n      swap2\n      pop\n      pop\n      jump\t// out\n        /* \"#utility.yul\":11915:12011   */\n    tag_129:\n        /* \"#utility.yul\":11952:11959   */\n      0x00\n        /* \"#utility.yul\":11981:12005   */\n      tag_231\n        /* \"#utility.yul\":11999:12004   */\n      dup3\n        /* \"#utility.yul\":11981:12005   */\n      tag_232\n      jump\t// in\n    tag_231:\n        /* \"#utility.yul\":11970:12005   */\n      swap1\n      pop\n        /* \"#utility.yul\":11915:12011   */\n      swap2\n      swap1\n      pop\n      jump\t// out\n        /* \"#utility.yul\":12017:12107   */\n    tag_233:\n        /* \"#utility.yul\":12051:12058   */\n      0x00\n        /* \"#utility.yul\":12094:12099   */\n      dup2\n        /* \"#utility.yul\":12087:12100   */\n      iszero\n        /* \"#utility.yul\":12080:12101   */\n      iszero\n        /* \"#utility.yul\":12069:12101   */\n      swap1\n      pop\n        /* \"#utility.yul\":12017:12107   */\n      swap2\n      swap1\n      pop\n      jump\t// out\n        /* \"#utility.yul\":12113:12239   */\n    tag_232:\n        /* \"#utility.yul\":12150:12157   */\n      0x00\n        /* \"#utility.yul\":12190:12232   */\n      0xffffffffffffffffffffffffffffffffffffffff\n        /* \"#utility.yul\":12183:12188   */\n      dup3\n        /* \"#utility.yul\":12179:12233   */\n      and\n        /* \"#utility.yul\":12168:12233   */\n      swap1\n      pop\n        /* \"#utility.yul\":12113:12239   */\n      swap2\n      swap1\n      pop\n      jump\t// out\n        /* \"#utility.yul\":12245:12322   */\n    tag_183:\n        /* \"#utility.yul\":12282:12289   */\n      0x00\n        /* \"#utility.yul\":12311:12316   */\n      dup2\n        /* \"#utility.yul\":12300:12316   */\n      swap1\n      pop\n        /* \"#utility.yul\":12245:12322   */\n      swap2\n      swap1\n      pop\n      jump\t// out\n        /* \"#utility.yul\":12328:12482   */\n    tag_91:\n        /* \"#utility.yul\":12412:12418   */\n      dup3\n        /* \"#utility.yul\":12407:12410   */\n      dup2\n        /* \"#utility.yul\":12402:12405   */\n      dup4\n        /* \"#utility.yul\":12389:12419   */\n      calldatacopy\n        /* \"#utility.yul\":12474:12475   */\n      0x00\n        /* \"#utility.yul\":12465:12471   */\n      dup4\n        /* \"#utility.yul\":12460:12463   */\n      dup4\n        /* \"#utility.yul\":12456:12472   */\n      add\n        /* \"#utility.yul\":12449:12476   */\n      mstore\n        /* \"#utility.yul\":12328:12482   */\n      pop\n      pop\n      pop\n      jump\t// out\n        /* \"#utility.yul\":12488:12795   */\n    tag_137:\n        /* \"#utility.yul\":12556:12557   */\n      0x00\n        /* \"#utility.yul\":12566:12679   */\n    tag_239:\n        /* \"#utility.yul\":12580:12586   */\n      dup4\n        /* \"#utility.yul\":12577:12578   */\n      dup2\n        /* \"#utility.yul\":12574:12587   */\n      lt\n        /* \"#utility.yul\":12566:12679   */\n      iszero\n      tag_241\n      jumpi\n        /* \"#utility.yul\":12665:12666   */\n      dup1\n        /* \"#utility.yul\":12660:12663   */\n      dup3\n        /* \"#utility.yul\":12656:12667   */\n      add\n        /* \"#utility.yul\":12650:12668   */\n      mload\n        /* \"#utility.yul\":12646:12647   */\n      dup2\n        /* \"#utility.yul\":12641:12644   */\n      dup5\n        /* \"#utility.yul\":12637:12648   */\n      add\n        /* \"#utility.yul\":12630:12669   */\n      mstore\n        /* \"#utility.yul\":12602:12604   */\n      0x20\n        /* \"#utility.yul\":12599:12600   */\n      dup2\n        /* \"#utility.yul\":12595:12605   */\n      add\n        /* \"#utility.yul\":12590:12605   */\n      swap1\n      pop\n        /* \"#utility.yul\":12566:12679   */\n      jump(tag_239)\n    tag_241:\n        /* \"#utility.yul\":12697:12703   */\n      dup4\n        /* \"#utility.yul\":12694:12695   */\n      dup2\n        /* \"#utility.yul\":12691:12704   */\n      gt\n        /* \"#utility.yul\":12688:12789   */\n      iszero\n      tag_242\n      jumpi\n        /* \"#utility.yul\":12777:12778   */\n      0x00\n        /* \"#utility.yul\":12768:12774   */\n      dup5\n        /* \"#utility.yul\":12763:12766   */\n      dup5\n        /* \"#utility.yul\":12759:12775   */\n      add\n        /* \"#utility.yul\":12752:12779   */\n      mstore\n        /* \"#utility.yul\":12688:12789   */\n    tag_242:\n        /* \"#utility.yul\":12537:12795   */\n      pop\n        /* \"#utility.yul\":12488:12795   */\n      pop\n      pop\n      pop\n      jump\t// out\n        /* \"#utility.yul\":12801:13082   */\n    tag_210:\n        /* \"#utility.yul\":12884:12911   */\n      tag_244\n        /* \"#utility.yul\":12906:12910   */\n      dup3\n        /* \"#utility.yul\":12884:12911   */\n      tag_139\n      jump\t// in\n    tag_244:\n        /* \"#utility.yul\":12876:12882   */\n      dup2\n        /* \"#utility.yul\":12872:12912   */\n      add\n        /* \"#utility.yul\":13014:13020   */\n      dup2\n        /* \"#utility.yul\":13002:13012   */\n      dup2\n        /* \"#utility.yul\":12999:13021   */\n      lt\n        /* \"#utility.yul\":12978:12996   */\n      0xffffffffffffffff\n        /* \"#utility.yul\":12966:12976   */\n      dup3\n        /* \"#utility.yul\":12963:12997   */\n      gt\n        /* \"#utility.yul\":12960:13022   */\n      or\n        /* \"#utility.yul\":12957:13045   */\n      iszero\n      tag_245\n      jumpi\n        /* \"#utility.yul\":13025:13043   */\n      tag_246\n      tag_215\n      jump\t// in\n    tag_246:\n        /* \"#utility.yul\":12957:13045   */\n    tag_245:\n        /* \"#utility.yul\":13065:13075   */\n      dup1\n        /* \"#utility.yul\":13061:13063   */\n      0x40\n        /* \"#utility.yul\":13054:13076   */\n      mstore\n        /* \"#utility.yul\":12844:13082   */\n      pop\n        /* \"#utility.yul\":12801:13082   */\n      pop\n      pop\n      jump\t// out\n        /* \"#utility.yul\":13088:13268   */\n    tag_224:\n        /* \"#utility.yul\":13136:13213   */\n      0x4e487b7100000000000000000000000000000000000000000000000000000000\n        /* \"#utility.yul\":13133:13134   */\n      0x00\n        /* \"#utility.yul\":13126:13214   */\n      mstore\n        /* \"#utility.yul\":13233:13237   */\n      0x11\n        /* \"#utility.yul\":13230:13231   */\n      0x04\n        /* \"#utility.yul\":13223:13238   */\n      mstore\n        /* \"#utility.yul\":13257:13261   */\n      0x24\n        /* \"#utility.yul\":13254:13255   */\n      0x00\n        /* \"#utility.yul\":13247:13262   */\n      revert\n        /* \"#utility.yul\":13274:13454   */\n    tag_215:\n        /* \"#utility.yul\":13322:13399   */\n      0x4e487b7100000000000000000000000000000000000000000000000000000000\n        /* \"#utility.yul\":13319:13320   */\n      0x00\n        /* \"#utility.yul\":13312:13400   */\n      mstore\n        /* \"#utility.yul\":13419:13423   */\n      0x41\n        /* \"#utility.yul\":13416:13417   */\n      0x04\n        /* \"#utility.yul\":13409:13424   */\n      mstore\n        /* \"#utility.yul\":13443:13447   */\n      0x24\n        /* \"#utility.yul\":13440:13441   */\n      0x00\n        /* \"#utility.yul\":13433:13448   */\n      revert\n        /* \"#utility.yul\":13460:13577   */\n    tag_104:\n        /* \"#utility.yul\":13569:13570   */\n      0x00\n        /* \"#utility.yul\":13566:13567   */\n      dup1\n        /* \"#utility.yul\":13559:13571   */\n      revert\n        /* \"#utility.yul\":13583:13700   */\n    tag_89:\n        /* \"#utility.yul\":13692:13693   */\n      0x00\n        /* \"#utility.yul\":13689:13690   */\n      dup1\n        /* \"#utility.yul\":13682:13694   */\n      revert\n        /* \"#utility.yul\":13706:13823   */\n    tag_118:\n        /* \"#utility.yul\":13815:13816   */\n      0x00\n        /* \"#utility.yul\":13812:13813   */\n      dup1\n        /* \"#utility.yul\":13805:13817   */\n      revert\n        /* \"#utility.yul\":13829:13946   */\n    tag_109:\n        /* \"#utility.yul\":13938:13939   */\n      0x00\n        /* \"#utility.yul\":13935:13936   */\n      dup1\n        /* \"#utility.yul\":13928:13940   */\n      revert\n        /* \"#utility.yul\":13952:14054   */\n    tag_139:\n        /* \"#utility.yul\":13993:13999   */\n      0x00\n        /* \"#utility.yul\":14044:14046   */\n      0x1f\n        /* \"#utility.yul\":14040:14047   */\n      not\n        /* \"#utility.yul\":14035:14037   */\n      0x1f\n        /* \"#utility.yul\":14028:14033   */\n      dup4\n        /* \"#utility.yul\":14024:14038   */\n      add\n        /* \"#utility.yul\":14020:14048   */\n      and\n        /* \"#utility.yul\":14010:14048   */\n      swap1\n      pop\n        /* \"#utility.yul\":13952:14054   */\n      swap2\n      swap1\n      pop\n      jump\t// out\n        /* \"#utility.yul\":14060:14230   */\n    tag_144:\n        /* \"#utility.yul\":14200:14222   */\n      0x43616e6e6f742073656e64204f20616d6f756e74000000000000000000000000\n        /* \"#utility.yul\":14196:14197   */\n      0x00\n        /* \"#utility.yul\":14188:14194   */\n      dup3\n        /* \"#utility.yul\":14184:14198   */\n      add\n        /* \"#utility.yul\":14177:14223   */\n      mstore\n        /* \"#utility.yul\":14060:14230   */\n      pop\n      jump\t// out\n        /* \"#utility.yul\":14236:14456   */\n    tag_149:\n        /* \"#utility.yul\":14376:14410   */\n      0x7769746864726177616c206661696c65642e204d6f6e65792072657475726e65\n        /* \"#utility.yul\":14372:14373   */\n      0x00\n        /* \"#utility.yul\":14364:14370   */\n      dup3\n        /* \"#utility.yul\":14360:14374   */\n      add\n        /* \"#utility.yul\":14353:14411   */\n      mstore\n        /* \"#utility.yul\":14445:14448   */\n      0x6400000000000000000000000000000000000000000000000000000000000000\n        /* \"#utility.yul\":14440:14442   */\n      0x20\n        /* \"#utility.yul\":14432:14438   */\n      dup3\n        /* \"#utility.yul\":14428:14443   */\n      add\n        /* \"#utility.yul\":14421:14449   */\n      mstore\n        /* \"#utility.yul\":14236:14456   */\n      pop\n      jump\t// out\n        /* \"#utility.yul\":14462:14633   */\n    tag_154:\n        /* \"#utility.yul\":14602:14625   */\n      0x7769746864726177616c207375636365737366756c0000000000000000000000\n        /* \"#utility.yul\":14598:14599   */\n      0x00\n        /* \"#utility.yul\":14590:14596   */\n      dup3\n        /* \"#utility.yul\":14586:14600   */\n      add\n        /* \"#utility.yul\":14579:14626   */\n      mstore\n        /* \"#utility.yul\":14462:14633   */\n      pop\n      jump\t// out\n        /* \"#utility.yul\":14639:14871   */\n    tag_159:\n        /* \"#utility.yul\":14779:14813   */\n      0x536f7272792120596f7572207472616e73616374696f6e20686173206e6f7420\n        /* \"#utility.yul\":14775:14776   */\n      0x00\n        /* \"#utility.yul\":14767:14773   */\n      dup3\n        /* \"#utility.yul\":14763:14777   */\n      add\n        /* \"#utility.yul\":14756:14814   */\n      mstore\n        /* \"#utility.yul\":14848:14863   */\n      0x6265656e20766572696669656400000000000000000000000000000000000000\n        /* \"#utility.yul\":14843:14845   */\n      0x20\n        /* \"#utility.yul\":14835:14841   */\n      dup3\n        /* \"#utility.yul\":14831:14846   */\n      add\n        /* \"#utility.yul\":14824:14864   */\n      mstore\n        /* \"#utility.yul\":14639:14871   */\n      pop\n      jump\t// out\n        /* \"#utility.yul\":14877:15116   */\n    tag_164:\n        /* \"#utility.yul\":15017:15051   */\n      0x636f756c64206e6f7420706179206d657373656e6765722e204d6f6e65792072\n        /* \"#utility.yul\":15013:15014   */\n      0x00\n        /* \"#utility.yul\":15005:15011   */\n      dup3\n        /* \"#utility.yul\":15001:15015   */\n      add\n        /* \"#utility.yul\":14994:15052   */\n      mstore\n        /* \"#utility.yul\":15086:15108   */\n      0x657475726e6564207375636365737366756c6c79000000000000000000000000\n        /* \"#utility.yul\":15081:15083   */\n      0x20\n        /* \"#utility.yul\":15073:15079   */\n      dup3\n        /* \"#utility.yul\":15069:15084   */\n      add\n        /* \"#utility.yul\":15062:15109   */\n      mstore\n        /* \"#utility.yul\":14877:15116   */\n      pop\n      jump\t// out\n        /* \"#utility.yul\":15122:15299   */\n    tag_169:\n        /* \"#utility.yul\":15262:15291   */\n      0x6d657373656e6765722070616964207375636365737366756c6c790000000000\n        /* \"#utility.yul\":15258:15259   */\n      0x00\n        /* \"#utility.yul\":15250:15256   */\n      dup3\n        /* \"#utility.yul\":15246:15260   */\n      add\n        /* \"#utility.yul\":15239:15292   */\n      mstore\n        /* \"#utility.yul\":15122:15299   */\n      pop\n      jump\t// out\n        /* \"#utility.yul\":15305:15477   */\n    tag_174:\n        /* \"#utility.yul\":15445:15469   */\n      0x4f6e6c792041646d696e2063616e20646f207468697300000000000000000000\n        /* \"#utility.yul\":15441:15442   */\n      0x00\n        /* \"#utility.yul\":15433:15439   */\n      dup3\n        /* \"#utility.yul\":15429:15443   */\n      add\n        /* \"#utility.yul\":15422:15470   */\n      mstore\n        /* \"#utility.yul\":15305:15477   */\n      pop\n      jump\t// out\n        /* \"#utility.yul\":15483:15658   */\n    tag_179:\n        /* \"#utility.yul\":15623:15650   */\n      0x5472616e73616374696f6e206e6f7420636f6d706c6574656400000000000000\n        /* \"#utility.yul\":15619:15620   */\n      0x00\n        /* \"#utility.yul\":15611:15617   */\n      dup3\n        /* \"#utility.yul\":15607:15621   */\n      add\n        /* \"#utility.yul\":15600:15651   */\n      mstore\n        /* \"#utility.yul\":15483:15658   */\n      pop\n      jump\t// out\n        /* \"#utility.yul\":15664:15786   */\n    tag_95:\n        /* \"#utility.yul\":15737:15761   */\n      tag_263\n        /* \"#utility.yul\":15755:15760   */\n      dup2\n        /* \"#utility.yul\":15737:15761   */\n      tag_129\n      jump\t// in\n    tag_263:\n        /* \"#utility.yul\":15730:15735   */\n      dup2\n        /* \"#utility.yul\":15727:15762   */\n      eq\n        /* \"#utility.yul\":15717:15780   */\n      tag_264\n      jumpi\n        /* \"#utility.yul\":15776:15777   */\n      0x00\n        /* \"#utility.yul\":15773:15774   */\n      dup1\n        /* \"#utility.yul\":15766:15778   */\n      revert\n        /* \"#utility.yul\":15717:15780   */\n    tag_264:\n        /* \"#utility.yul\":15664:15786   */\n      pop\n      jump\t// out\n        /* \"#utility.yul\":15792:15908   */\n    tag_99:\n        /* \"#utility.yul\":15862:15883   */\n      tag_266\n        /* \"#utility.yul\":15877:15882   */\n      dup2\n        /* \"#utility.yul\":15862:15883   */\n      tag_233\n      jump\t// in\n    tag_266:\n        /* \"#utility.yul\":15855:15860   */\n      dup2\n        /* \"#utility.yul\":15852:15884   */\n      eq\n        /* \"#utility.yul\":15842:15902   */\n      tag_267\n      jumpi\n        /* \"#utility.yul\":15898:15899   */\n      0x00\n        /* \"#utility.yul\":15895:15896   */\n      dup1\n        /* \"#utility.yul\":15888:15900   */\n      revert\n        /* \"#utility.yul\":15842:15902   */\n    tag_267:\n        /* \"#utility.yul\":15792:15908   */\n      pop\n      jump\t// out\n\n    auxdata: 0xa2646970667358221220a177837f2f3f6ae9c31770f948bba6130b34e82a1d02d04504b2c1859bc0d85264736f6c63430008070033\n}\n",
				"bytecode": {
					"linkReferences": {},
					"object": "608060405234801561001057600080fd5b50336000806101000a81548173ffffffffffffffffffffffffffffffffffffffff021916908373ffffffffffffffffffffffffffffffffffffffff16021790555061169c806100606000396000f3fe60806040526004361061004a5760003560e01c80631713248d1461004f578063a82d64371461006b578063a8f89ee114610094578063ce606ee0146100d1578063e14dd969146100fc575b600080fd5b61006960048036038101906100649190610ece565b610125565b005b34801561007757600080fd5b50610092600480360381019061008d9190610e8e565b610491565b005b3480156100a057600080fd5b506100bb60048036038101906100b69190610e8e565b610810565b6040516100c89190611229565b60405180910390f35b3480156100dd57600080fd5b506100e6610897565b6040516100f391906110ec565b60405180910390f35b34801561010857600080fd5b50610123600480360381019061011e9190610f2a565b6108bb565b005b60003411610168576040517f08c379a000000000000000000000000000000000000000000000000000000000815260040161015f90611129565b60405180910390fd5b6000349050600033905033600460008373ffffffffffffffffffffffffffffffffffffffff1673ffffffffffffffffffffffffffffffffffffffff16815260200190815260200160002060006101000a81548173ffffffffffffffffffffffffffffffffffffffff021916908373ffffffffffffffffffffffffffffffffffffffff160217905550600084600560008373ffffffffffffffffffffffffffffffffffffffff1673ffffffffffffffffffffffffffffffffffffffff16815260200190815260200160002060006101000a81548173ffffffffffffffffffffffffffffffffffffffff021916908373ffffffffffffffffffffffffffffffffffffffff1602179055506000600560008373ffffffffffffffffffffffffffffffffffffffff1673ffffffffffffffffffffffffffffffffffffffff16815260200190815260200160002060009054906101000a900473ffffffffffffffffffffffffffffffffffffffff16905083600160008573ffffffffffffffffffffffffffffffffffffffff1673ffffffffffffffffffffffffffffffffffffffff168152602001908152602001600020600082825461032391906112b6565b9250508190555083600260008573ffffffffffffffffffffffffffffffffffffffff1673ffffffffffffffffffffffffffffffffffffffff16815260200190815260200160002060008373ffffffffffffffffffffffffffffffffffffffff1673ffffffffffffffffffffffffffffffffffffffff16815260200190815260200160002060008282546103b691906112b6565b925050819055506000600360008573ffffffffffffffffffffffffffffffffffffffff1673ffffffffffffffffffffffffffffffffffffffff16815260200190815260200160002060008373ffffffffffffffffffffffffffffffffffffffff1673ffffffffffffffffffffffffffffffffffffffff16815260200190815260200160002060006101000a81548160ff0219169083151502179055507fadb6715bd1da9425e8f8fa8ef7e7185c12d644f1db5fedea84c79f2d2adee449856040516104819190611107565b60405180910390a1505050505050565b60008054906101000a900473ffffffffffffffffffffffffffffffffffffffff1673ffffffffffffffffffffffffffffffffffffffff163373ffffffffffffffffffffffffffffffffffffffff161461051f576040517f08c379a0000000000000000000000000000000000000000000000000000000008152600401610516906111e9565b60405180910390fd5b6000600260008473ffffffffffffffffffffffffffffffffffffffff1673ffffffffffffffffffffffffffffffffffffffff16815260200190815260200160002060008373ffffffffffffffffffffffffffffffffffffffff1673ffffffffffffffffffffffffffffffffffffffff16815260200190815260200160002054905080600160008573ffffffffffffffffffffffffffffffffffffffff1673ffffffffffffffffffffffffffffffffffffffff16815260200190815260200160002060008282546105ef919061130c565b925050819055506000600260008573ffffffffffffffffffffffffffffffffffffffff1673ffffffffffffffffffffffffffffffffffffffff16815260200190815260200160002060008473ffffffffffffffffffffffffffffffffffffffff1673ffffffffffffffffffffffffffffffffffffffff168152602001908152602001600020819055508273ffffffffffffffffffffffffffffffffffffffff166108fc829081150290604051600060405180830381858888f19350505050156106ec577f06169a5f6fdc157bf38af80eecc218b46765eab9ad2d530d9a143fd8501602ef6040516106df90611169565b60405180910390a161080b565b80600160008573ffffffffffffffffffffffffffffffffffffffff1673ffffffffffffffffffffffffffffffffffffffff168152602001908152602001600020600082825461073b91906112b6565b9250508190555080600260008573ffffffffffffffffffffffffffffffffffffffff1673ffffffffffffffffffffffffffffffffffffffff16815260200190815260200160002060008473ffffffffffffffffffffffffffffffffffffffff1673ffffffffffffffffffffffffffffffffffffffff16815260200190815260200160002060008282546107ce91906112b6565b925050819055507f06169a5f6fdc157bf38af80eecc218b46765eab9ad2d530d9a143fd8501602ef60405161080290611149565b60405180910390a15b505050565b6000600260008473ffffffffffffffffffffffffffffffffffffffff1673ffffffffffffffffffffffffffffffffffffffff16815260200190815260200160002060008373ffffffffffffffffffffffffffffffffffffffff1673ffffffffffffffffffffffffffffffffffffffff16815260200190815260200160002054905092915050565b60008054906101000a900473ffffffffffffffffffffffffffffffffffffffff1681565b82600360008473ffffffffffffffffffffffffffffffffffffffff1673ffffffffffffffffffffffffffffffffffffffff16815260200190815260200160002060008373ffffffffffffffffffffffffffffffffffffffff1673ffffffffffffffffffffffffffffffffffffffff16815260200190815260200160002060006101000a81548160ff021916908315150217905550600360008373ffffffffffffffffffffffffffffffffffffffff1673ffffffffffffffffffffffffffffffffffffffff16815260200190815260200160002060008273ffffffffffffffffffffffffffffffffffffffff1673ffffffffffffffffffffffffffffffffffffffff16815260200190815260200160002060009054906101000a900460ff16156109ed576109e88282610a28565b610a23565b7f06169a5f6fdc157bf38af80eecc218b46765eab9ad2d530d9a143fd8501602ef604051610a1a90611189565b60405180910390a15b505050565b600360008373ffffffffffffffffffffffffffffffffffffffff1673ffffffffffffffffffffffffffffffffffffffff16815260200190815260200160002060008273ffffffffffffffffffffffffffffffffffffffff1673ffffffffffffffffffffffffffffffffffffffff16815260200190815260200160002060009054906101000a900460ff1615610dba576000600260008473ffffffffffffffffffffffffffffffffffffffff1673ffffffffffffffffffffffffffffffffffffffff16815260200190815260200160002060008373ffffffffffffffffffffffffffffffffffffffff1673ffffffffffffffffffffffffffffffffffffffff16815260200190815260200160002054905080600160008573ffffffffffffffffffffffffffffffffffffffff1673ffffffffffffffffffffffffffffffffffffffff1681526020019081526020016000206000828254610b87919061130c565b9250508190555080600260008573ffffffffffffffffffffffffffffffffffffffff1673ffffffffffffffffffffffffffffffffffffffff16815260200190815260200160002060008473ffffffffffffffffffffffffffffffffffffffff1673ffffffffffffffffffffffffffffffffffffffff1681526020019081526020016000206000828254610c1a919061130c565b925050819055508173ffffffffffffffffffffffffffffffffffffffff166108fc829081150290604051600060405180830381858888f1935050505015610c95577f06169a5f6fdc157bf38af80eecc218b46765eab9ad2d530d9a143fd8501602ef604051610c88906111c9565b60405180910390a1610db4565b80600160008573ffffffffffffffffffffffffffffffffffffffff1673ffffffffffffffffffffffffffffffffffffffff1681526020019081526020016000206000828254610ce491906112b6565b9250508190555080600260008573ffffffffffffffffffffffffffffffffffffffff1673ffffffffffffffffffffffffffffffffffffffff16815260200190815260200160002060008473ffffffffffffffffffffffffffffffffffffffff1673ffffffffffffffffffffffffffffffffffffffff1681526020019081526020016000206000828254610d7791906112b6565b925050819055507f06169a5f6fdc157bf38af80eecc218b46765eab9ad2d530d9a143fd8501602ef604051610dab906111a9565b60405180910390a15b50610df0565b7f06169a5f6fdc157bf38af80eecc218b46765eab9ad2d530d9a143fd8501602ef604051610de790611209565b60405180910390a15b5050565b6000610e07610e0284611269565b611244565b905082815260208101848484011115610e2357610e2261145e565b5b610e2e848285611388565b509392505050565b600081359050610e4581611638565b92915050565b600081359050610e5a8161164f565b92915050565b600082601f830112610e7557610e74611459565b5b8135610e85848260208601610df4565b91505092915050565b60008060408385031215610ea557610ea4611468565b5b6000610eb385828601610e36565b9250506020610ec485828601610e36565b9150509250929050565b60008060408385031215610ee557610ee4611468565b5b6000610ef385828601610e36565b925050602083013567ffffffffffffffff811115610f1457610f13611463565b5b610f2085828601610e60565b9150509250929050565b600080600060608486031215610f4357610f42611468565b5b6000610f5186828701610e4b565b9350506020610f6286828701610e36565b9250506040610f7386828701610e36565b9150509250925092565b610f8681611340565b82525050565b6000610f978261129a565b610fa181856112a5565b9350610fb1818560208601611397565b610fba8161146d565b840191505092915050565b6000610fd26014836112a5565b9150610fdd8261147e565b602082019050919050565b6000610ff56021836112a5565b9150611000826114a7565b604082019050919050565b60006110186015836112a5565b9150611023826114f6565b602082019050919050565b600061103b602d836112a5565b91506110468261151f565b604082019050919050565b600061105e6034836112a5565b91506110698261156e565b604082019050919050565b6000611081601b836112a5565b915061108c826115bd565b602082019050919050565b60006110a46016836112a5565b91506110af826115e6565b602082019050919050565b60006110c76019836112a5565b91506110d28261160f565b602082019050919050565b6110e68161137e565b82525050565b60006020820190506111016000830184610f7d565b92915050565b600060208201905081810360008301526111218184610f8c565b905092915050565b6000602082019050818103600083015261114281610fc5565b9050919050565b6000602082019050818103600083015261116281610fe8565b9050919050565b600060208201905081810360008301526111828161100b565b9050919050565b600060208201905081810360008301526111a28161102e565b9050919050565b600060208201905081810360008301526111c281611051565b9050919050565b600060208201905081810360008301526111e281611074565b9050919050565b6000602082019050818103600083015261120281611097565b9050919050565b60006020820190508181036000830152611222816110ba565b9050919050565b600060208201905061123e60008301846110dd565b92915050565b600061124e61125f565b905061125a82826113ca565b919050565b6000604051905090565b600067ffffffffffffffff8211156112845761128361142a565b5b61128d8261146d565b9050602081019050919050565b600081519050919050565b600082825260208201905092915050565b60006112c18261137e565b91506112cc8361137e565b9250827fffffffffffffffffffffffffffffffffffffffffffffffffffffffffffffffff03821115611301576113006113fb565b5b828201905092915050565b60006113178261137e565b91506113228361137e565b925082821015611335576113346113fb565b5b828203905092915050565b600061134b8261135e565b9050919050565b60008115159050919050565b600073ffffffffffffffffffffffffffffffffffffffff82169050919050565b6000819050919050565b82818337600083830152505050565b60005b838110156113b557808201518184015260208101905061139a565b838111156113c4576000848401525b50505050565b6113d38261146d565b810181811067ffffffffffffffff821117156113f2576113f161142a565b5b80604052505050565b7f4e487b7100000000000000000000000000000000000000000000000000000000600052601160045260246000fd5b7f4e487b7100000000000000000000000000000000000000000000000000000000600052604160045260246000fd5b600080fd5b600080fd5b600080fd5b600080fd5b6000601f19601f8301169050919050565b7f43616e6e6f742073656e64204f20616d6f756e74000000000000000000000000600082015250565b7f7769746864726177616c206661696c65642e204d6f6e65792072657475726e6560008201527f6400000000000000000000000000000000000000000000000000000000000000602082015250565b7f7769746864726177616c207375636365737366756c0000000000000000000000600082015250565b7f536f7272792120596f7572207472616e73616374696f6e20686173206e6f742060008201527f6265656e20766572696669656400000000000000000000000000000000000000602082015250565b7f636f756c64206e6f7420706179206d657373656e6765722e204d6f6e6579207260008201527f657475726e6564207375636365737366756c6c79000000000000000000000000602082015250565b7f6d657373656e6765722070616964207375636365737366756c6c790000000000600082015250565b7f4f6e6c792041646d696e2063616e20646f207468697300000000000000000000600082015250565b7f5472616e73616374696f6e206e6f7420636f6d706c6574656400000000000000600082015250565b61164181611340565b811461164c57600080fd5b50565b61165881611352565b811461166357600080fd5b5056fea2646970667358221220a177837f2f3f6ae9c31770f948bba6130b34e82a1d02d04504b2c1859bc0d85264736f6c63430008070033",
					"opcodes": "PUSH1 0x80 PUSH1 0x40 MSTORE CALLVALUE DUP1 ISZERO PUSH2 0x10 JUMPI PUSH1 0x0 DUP1 REVERT JUMPDEST POP CALLER PUSH1 0x0 DUP1 PUSH2 0x100 EXP DUP2 SLOAD DUP2 PUSH20 0xFFFFFFFFFFFFFFFFFFFFFFFFFFFFFFFFFFFFFFFF MUL NOT AND SWAP1 DUP4 PUSH20 0xFFFFFFFFFFFFFFFFFFFFFFFFFFFFFFFFFFFFFFFF AND MUL OR SWAP1 SSTORE POP PUSH2 0x169C DUP1 PUSH2 0x60 PUSH1 0x0 CODECOPY PUSH1 0x0 RETURN INVALID PUSH1 0x80 PUSH1 0x40 MSTORE PUSH1 0x4 CALLDATASIZE LT PUSH2 0x4A JUMPI PUSH1 0x0 CALLDATALOAD PUSH1 0xE0 SHR DUP1 PUSH4 0x1713248D EQ PUSH2 0x4F JUMPI DUP1 PUSH4 0xA82D6437 EQ PUSH2 0x6B JUMPI DUP1 PUSH4 0xA8F89EE1 EQ PUSH2 0x94 JUMPI DUP1 PUSH4 0xCE606EE0 EQ PUSH2 0xD1 JUMPI DUP1 PUSH4 0xE14DD969 EQ PUSH2 0xFC JUMPI JUMPDEST PUSH1 0x0 DUP1 REVERT JUMPDEST PUSH2 0x69 PUSH1 0x4 DUP1 CALLDATASIZE SUB DUP2 ADD SWAP1 PUSH2 0x64 SWAP2 SWAP1 PUSH2 0xECE JUMP JUMPDEST PUSH2 0x125 JUMP JUMPDEST STOP JUMPDEST CALLVALUE DUP1 ISZERO PUSH2 0x77 JUMPI PUSH1 0x0 DUP1 REVERT JUMPDEST POP PUSH2 0x92 PUSH1 0x4 DUP1 CALLDATASIZE SUB DUP2 ADD SWAP1 PUSH2 0x8D SWAP2 SWAP1 PUSH2 0xE8E JUMP JUMPDEST PUSH2 0x491 JUMP JUMPDEST STOP JUMPDEST CALLVALUE DUP1 ISZERO PUSH2 0xA0 JUMPI PUSH1 0x0 DUP1 REVERT JUMPDEST POP PUSH2 0xBB PUSH1 0x4 DUP1 CALLDATASIZE SUB DUP2 ADD SWAP1 PUSH2 0xB6 SWAP2 SWAP1 PUSH2 0xE8E JUMP JUMPDEST PUSH2 0x810 JUMP JUMPDEST PUSH1 0x40 MLOAD PUSH2 0xC8 SWAP2 SWAP1 PUSH2 0x1229 JUMP JUMPDEST PUSH1 0x40 MLOAD DUP1 SWAP2 SUB SWAP1 RETURN JUMPDEST CALLVALUE DUP1 ISZERO PUSH2 0xDD JUMPI PUSH1 0x0 DUP1 REVERT JUMPDEST POP PUSH2 0xE6 PUSH2 0x897 JUMP JUMPDEST PUSH1 0x40 MLOAD PUSH2 0xF3 SWAP2 SWAP1 PUSH2 0x10EC JUMP JUMPDEST PUSH1 0x40 MLOAD DUP1 SWAP2 SUB SWAP1 RETURN JUMPDEST CALLVALUE DUP1 ISZERO PUSH2 0x108 JUMPI PUSH1 0x0 DUP1 REVERT JUMPDEST POP PUSH2 0x123 PUSH1 0x4 DUP1 CALLDATASIZE SUB DUP2 ADD SWAP1 PUSH2 0x11E SWAP2 SWAP1 PUSH2 0xF2A JUMP JUMPDEST PUSH2 0x8BB JUMP JUMPDEST STOP JUMPDEST PUSH1 0x0 CALLVALUE GT PUSH2 0x168 JUMPI PUSH1 0x40 MLOAD PUSH32 0x8C379A000000000000000000000000000000000000000000000000000000000 DUP2 MSTORE PUSH1 0x4 ADD PUSH2 0x15F SWAP1 PUSH2 0x1129 JUMP JUMPDEST PUSH1 0x40 MLOAD DUP1 SWAP2 SUB SWAP1 REVERT JUMPDEST PUSH1 0x0 CALLVALUE SWAP1 POP PUSH1 0x0 CALLER SWAP1 POP CALLER PUSH1 0x4 PUSH1 0x0 DUP4 PUSH20 0xFFFFFFFFFFFFFFFFFFFFFFFFFFFFFFFFFFFFFFFF AND PUSH20 0xFFFFFFFFFFFFFFFFFFFFFFFFFFFFFFFFFFFFFFFF AND DUP2 MSTORE PUSH1 0x20 ADD SWAP1 DUP2 MSTORE PUSH1 0x20 ADD PUSH1 0x0 KECCAK256 PUSH1 0x0 PUSH2 0x100 EXP DUP2 SLOAD DUP2 PUSH20 0xFFFFFFFFFFFFFFFFFFFFFFFFFFFFFFFFFFFFFFFF MUL NOT AND SWAP1 DUP4 PUSH20 0xFFFFFFFFFFFFFFFFFFFFFFFFFFFFFFFFFFFFFFFF AND MUL OR SWAP1 SSTORE POP PUSH1 0x0 DUP5 PUSH1 0x5 PUSH1 0x0 DUP4 PUSH20 0xFFFFFFFFFFFFFFFFFFFFFFFFFFFFFFFFFFFFFFFF AND PUSH20 0xFFFFFFFFFFFFFFFFFFFFFFFFFFFFFFFFFFFFFFFF AND DUP2 MSTORE PUSH1 0x20 ADD SWAP1 DUP2 MSTORE PUSH1 0x20 ADD PUSH1 0x0 KECCAK256 PUSH1 0x0 PUSH2 0x100 EXP DUP2 SLOAD DUP2 PUSH20 0xFFFFFFFFFFFFFFFFFFFFFFFFFFFFFFFFFFFFFFFF MUL NOT AND SWAP1 DUP4 PUSH20 0xFFFFFFFFFFFFFFFFFFFFFFFFFFFFFFFFFFFFFFFF AND MUL OR SWAP1 SSTORE POP PUSH1 0x0 PUSH1 0x5 PUSH1 0x0 DUP4 PUSH20 0xFFFFFFFFFFFFFFFFFFFFFFFFFFFFFFFFFFFFFFFF AND PUSH20 0xFFFFFFFFFFFFFFFFFFFFFFFFFFFFFFFFFFFFFFFF AND DUP2 MSTORE PUSH1 0x20 ADD SWAP1 DUP2 MSTORE PUSH1 0x20 ADD PUSH1 0x0 KECCAK256 PUSH1 0x0 SWAP1 SLOAD SWAP1 PUSH2 0x100 EXP SWAP1 DIV PUSH20 0xFFFFFFFFFFFFFFFFFFFFFFFFFFFFFFFFFFFFFFFF AND SWAP1 POP DUP4 PUSH1 0x1 PUSH1 0x0 DUP6 PUSH20 0xFFFFFFFFFFFFFFFFFFFFFFFFFFFFFFFFFFFFFFFF AND PUSH20 0xFFFFFFFFFFFFFFFFFFFFFFFFFFFFFFFFFFFFFFFF AND DUP2 MSTORE PUSH1 0x20 ADD SWAP1 DUP2 MSTORE PUSH1 0x20 ADD PUSH1 0x0 KECCAK256 PUSH1 0x0 DUP3 DUP3 SLOAD PUSH2 0x323 SWAP2 SWAP1 PUSH2 0x12B6 JUMP JUMPDEST SWAP3 POP POP DUP2 SWAP1 SSTORE POP DUP4 PUSH1 0x2 PUSH1 0x0 DUP6 PUSH20 0xFFFFFFFFFFFFFFFFFFFFFFFFFFFFFFFFFFFFFFFF AND PUSH20 0xFFFFFFFFFFFFFFFFFFFFFFFFFFFFFFFFFFFFFFFF AND DUP2 MSTORE PUSH1 0x20 ADD SWAP1 DUP2 MSTORE PUSH1 0x20 ADD PUSH1 0x0 KECCAK256 PUSH1 0x0 DUP4 PUSH20 0xFFFFFFFFFFFFFFFFFFFFFFFFFFFFFFFFFFFFFFFF AND PUSH20 0xFFFFFFFFFFFFFFFFFFFFFFFFFFFFFFFFFFFFFFFF AND DUP2 MSTORE PUSH1 0x20 ADD SWAP1 DUP2 MSTORE PUSH1 0x20 ADD PUSH1 0x0 KECCAK256 PUSH1 0x0 DUP3 DUP3 SLOAD PUSH2 0x3B6 SWAP2 SWAP1 PUSH2 0x12B6 JUMP JUMPDEST SWAP3 POP POP DUP2 SWAP1 SSTORE POP PUSH1 0x0 PUSH1 0x3 PUSH1 0x0 DUP6 PUSH20 0xFFFFFFFFFFFFFFFFFFFFFFFFFFFFFFFFFFFFFFFF AND PUSH20 0xFFFFFFFFFFFFFFFFFFFFFFFFFFFFFFFFFFFFFFFF AND DUP2 MSTORE PUSH1 0x20 ADD SWAP1 DUP2 MSTORE PUSH1 0x20 ADD PUSH1 0x0 KECCAK256 PUSH1 0x0 DUP4 PUSH20 0xFFFFFFFFFFFFFFFFFFFFFFFFFFFFFFFFFFFFFFFF AND PUSH20 0xFFFFFFFFFFFFFFFFFFFFFFFFFFFFFFFFFFFFFFFF AND DUP2 MSTORE PUSH1 0x20 ADD SWAP1 DUP2 MSTORE PUSH1 0x20 ADD PUSH1 0x0 KECCAK256 PUSH1 0x0 PUSH2 0x100 EXP DUP2 SLOAD DUP2 PUSH1 0xFF MUL NOT AND SWAP1 DUP4 ISZERO ISZERO MUL OR SWAP1 SSTORE POP PUSH32 0xADB6715BD1DA9425E8F8FA8EF7E7185C12D644F1DB5FEDEA84C79F2D2ADEE449 DUP6 PUSH1 0x40 MLOAD PUSH2 0x481 SWAP2 SWAP1 PUSH2 0x1107 JUMP JUMPDEST PUSH1 0x40 MLOAD DUP1 SWAP2 SUB SWAP1 LOG1 POP POP POP POP POP POP JUMP JUMPDEST PUSH1 0x0 DUP1 SLOAD SWAP1 PUSH2 0x100 EXP SWAP1 DIV PUSH20 0xFFFFFFFFFFFFFFFFFFFFFFFFFFFFFFFFFFFFFFFF AND PUSH20 0xFFFFFFFFFFFFFFFFFFFFFFFFFFFFFFFFFFFFFFFF AND CALLER PUSH20 0xFFFFFFFFFFFFFFFFFFFFFFFFFFFFFFFFFFFFFFFF AND EQ PUSH2 0x51F JUMPI PUSH1 0x40 MLOAD PUSH32 0x8C379A000000000000000000000000000000000000000000000000000000000 DUP2 MSTORE PUSH1 0x4 ADD PUSH2 0x516 SWAP1 PUSH2 0x11E9 JUMP JUMPDEST PUSH1 0x40 MLOAD DUP1 SWAP2 SUB SWAP1 REVERT JUMPDEST PUSH1 0x0 PUSH1 0x2 PUSH1 0x0 DUP5 PUSH20 0xFFFFFFFFFFFFFFFFFFFFFFFFFFFFFFFFFFFFFFFF AND PUSH20 0xFFFFFFFFFFFFFFFFFFFFFFFFFFFFFFFFFFFFFFFF AND DUP2 MSTORE PUSH1 0x20 ADD SWAP1 DUP2 MSTORE PUSH1 0x20 ADD PUSH1 0x0 KECCAK256 PUSH1 0x0 DUP4 PUSH20 0xFFFFFFFFFFFFFFFFFFFFFFFFFFFFFFFFFFFFFFFF AND PUSH20 0xFFFFFFFFFFFFFFFFFFFFFFFFFFFFFFFFFFFFFFFF AND DUP2 MSTORE PUSH1 0x20 ADD SWAP1 DUP2 MSTORE PUSH1 0x20 ADD PUSH1 0x0 KECCAK256 SLOAD SWAP1 POP DUP1 PUSH1 0x1 PUSH1 0x0 DUP6 PUSH20 0xFFFFFFFFFFFFFFFFFFFFFFFFFFFFFFFFFFFFFFFF AND PUSH20 0xFFFFFFFFFFFFFFFFFFFFFFFFFFFFFFFFFFFFFFFF AND DUP2 MSTORE PUSH1 0x20 ADD SWAP1 DUP2 MSTORE PUSH1 0x20 ADD PUSH1 0x0 KECCAK256 PUSH1 0x0 DUP3 DUP3 SLOAD PUSH2 0x5EF SWAP2 SWAP1 PUSH2 0x130C JUMP JUMPDEST SWAP3 POP POP DUP2 SWAP1 SSTORE POP PUSH1 0x0 PUSH1 0x2 PUSH1 0x0 DUP6 PUSH20 0xFFFFFFFFFFFFFFFFFFFFFFFFFFFFFFFFFFFFFFFF AND PUSH20 0xFFFFFFFFFFFFFFFFFFFFFFFFFFFFFFFFFFFFFFFF AND DUP2 MSTORE PUSH1 0x20 ADD SWAP1 DUP2 MSTORE PUSH1 0x20 ADD PUSH1 0x0 KECCAK256 PUSH1 0x0 DUP5 PUSH20 0xFFFFFFFFFFFFFFFFFFFFFFFFFFFFFFFFFFFFFFFF AND PUSH20 0xFFFFFFFFFFFFFFFFFFFFFFFFFFFFFFFFFFFFFFFF AND DUP2 MSTORE PUSH1 0x20 ADD SWAP1 DUP2 MSTORE PUSH1 0x20 ADD PUSH1 0x0 KECCAK256 DUP2 SWAP1 SSTORE POP DUP3 PUSH20 0xFFFFFFFFFFFFFFFFFFFFFFFFFFFFFFFFFFFFFFFF AND PUSH2 0x8FC DUP3 SWAP1 DUP2 ISZERO MUL SWAP1 PUSH1 0x40 MLOAD PUSH1 0x0 PUSH1 0x40 MLOAD DUP1 DUP4 SUB DUP2 DUP6 DUP9 DUP9 CALL SWAP4 POP POP POP POP ISZERO PUSH2 0x6EC JUMPI PUSH32 0x6169A5F6FDC157BF38AF80EECC218B46765EAB9AD2D530D9A143FD8501602EF PUSH1 0x40 MLOAD PUSH2 0x6DF SWAP1 PUSH2 0x1169 JUMP JUMPDEST PUSH1 0x40 MLOAD DUP1 SWAP2 SUB SWAP1 LOG1 PUSH2 0x80B JUMP JUMPDEST DUP1 PUSH1 0x1 PUSH1 0x0 DUP6 PUSH20 0xFFFFFFFFFFFFFFFFFFFFFFFFFFFFFFFFFFFFFFFF AND PUSH20 0xFFFFFFFFFFFFFFFFFFFFFFFFFFFFFFFFFFFFFFFF AND DUP2 MSTORE PUSH1 0x20 ADD SWAP1 DUP2 MSTORE PUSH1 0x20 ADD PUSH1 0x0 KECCAK256 PUSH1 0x0 DUP3 DUP3 SLOAD PUSH2 0x73B SWAP2 SWAP1 PUSH2 0x12B6 JUMP JUMPDEST SWAP3 POP POP DUP2 SWAP1 SSTORE POP DUP1 PUSH1 0x2 PUSH1 0x0 DUP6 PUSH20 0xFFFFFFFFFFFFFFFFFFFFFFFFFFFFFFFFFFFFFFFF AND PUSH20 0xFFFFFFFFFFFFFFFFFFFFFFFFFFFFFFFFFFFFFFFF AND DUP2 MSTORE PUSH1 0x20 ADD SWAP1 DUP2 MSTORE PUSH1 0x20 ADD PUSH1 0x0 KECCAK256 PUSH1 0x0 DUP5 PUSH20 0xFFFFFFFFFFFFFFFFFFFFFFFFFFFFFFFFFFFFFFFF AND PUSH20 0xFFFFFFFFFFFFFFFFFFFFFFFFFFFFFFFFFFFFFFFF AND DUP2 MSTORE PUSH1 0x20 ADD SWAP1 DUP2 MSTORE PUSH1 0x20 ADD PUSH1 0x0 KECCAK256 PUSH1 0x0 DUP3 DUP3 SLOAD PUSH2 0x7CE SWAP2 SWAP1 PUSH2 0x12B6 JUMP JUMPDEST SWAP3 POP POP DUP2 SWAP1 SSTORE POP PUSH32 0x6169A5F6FDC157BF38AF80EECC218B46765EAB9AD2D530D9A143FD8501602EF PUSH1 0x40 MLOAD PUSH2 0x802 SWAP1 PUSH2 0x1149 JUMP JUMPDEST PUSH1 0x40 MLOAD DUP1 SWAP2 SUB SWAP1 LOG1 JUMPDEST POP POP POP JUMP JUMPDEST PUSH1 0x0 PUSH1 0x2 PUSH1 0x0 DUP5 PUSH20 0xFFFFFFFFFFFFFFFFFFFFFFFFFFFFFFFFFFFFFFFF AND PUSH20 0xFFFFFFFFFFFFFFFFFFFFFFFFFFFFFFFFFFFFFFFF AND DUP2 MSTORE PUSH1 0x20 ADD SWAP1 DUP2 MSTORE PUSH1 0x20 ADD PUSH1 0x0 KECCAK256 PUSH1 0x0 DUP4 PUSH20 0xFFFFFFFFFFFFFFFFFFFFFFFFFFFFFFFFFFFFFFFF AND PUSH20 0xFFFFFFFFFFFFFFFFFFFFFFFFFFFFFFFFFFFFFFFF AND DUP2 MSTORE PUSH1 0x20 ADD SWAP1 DUP2 MSTORE PUSH1 0x20 ADD PUSH1 0x0 KECCAK256 SLOAD SWAP1 POP SWAP3 SWAP2 POP POP JUMP JUMPDEST PUSH1 0x0 DUP1 SLOAD SWAP1 PUSH2 0x100 EXP SWAP1 DIV PUSH20 0xFFFFFFFFFFFFFFFFFFFFFFFFFFFFFFFFFFFFFFFF AND DUP2 JUMP JUMPDEST DUP3 PUSH1 0x3 PUSH1 0x0 DUP5 PUSH20 0xFFFFFFFFFFFFFFFFFFFFFFFFFFFFFFFFFFFFFFFF AND PUSH20 0xFFFFFFFFFFFFFFFFFFFFFFFFFFFFFFFFFFFFFFFF AND DUP2 MSTORE PUSH1 0x20 ADD SWAP1 DUP2 MSTORE PUSH1 0x20 ADD PUSH1 0x0 KECCAK256 PUSH1 0x0 DUP4 PUSH20 0xFFFFFFFFFFFFFFFFFFFFFFFFFFFFFFFFFFFFFFFF AND PUSH20 0xFFFFFFFFFFFFFFFFFFFFFFFFFFFFFFFFFFFFFFFF AND DUP2 MSTORE PUSH1 0x20 ADD SWAP1 DUP2 MSTORE PUSH1 0x20 ADD PUSH1 0x0 KECCAK256 PUSH1 0x0 PUSH2 0x100 EXP DUP2 SLOAD DUP2 PUSH1 0xFF MUL NOT AND SWAP1 DUP4 ISZERO ISZERO MUL OR SWAP1 SSTORE POP PUSH1 0x3 PUSH1 0x0 DUP4 PUSH20 0xFFFFFFFFFFFFFFFFFFFFFFFFFFFFFFFFFFFFFFFF AND PUSH20 0xFFFFFFFFFFFFFFFFFFFFFFFFFFFFFFFFFFFFFFFF AND DUP2 MSTORE PUSH1 0x20 ADD SWAP1 DUP2 MSTORE PUSH1 0x20 ADD PUSH1 0x0 KECCAK256 PUSH1 0x0 DUP3 PUSH20 0xFFFFFFFFFFFFFFFFFFFFFFFFFFFFFFFFFFFFFFFF AND PUSH20 0xFFFFFFFFFFFFFFFFFFFFFFFFFFFFFFFFFFFFFFFF AND DUP2 MSTORE PUSH1 0x20 ADD SWAP1 DUP2 MSTORE PUSH1 0x20 ADD PUSH1 0x0 KECCAK256 PUSH1 0x0 SWAP1 SLOAD SWAP1 PUSH2 0x100 EXP SWAP1 DIV PUSH1 0xFF AND ISZERO PUSH2 0x9ED JUMPI PUSH2 0x9E8 DUP3 DUP3 PUSH2 0xA28 JUMP JUMPDEST PUSH2 0xA23 JUMP JUMPDEST PUSH32 0x6169A5F6FDC157BF38AF80EECC218B46765EAB9AD2D530D9A143FD8501602EF PUSH1 0x40 MLOAD PUSH2 0xA1A SWAP1 PUSH2 0x1189 JUMP JUMPDEST PUSH1 0x40 MLOAD DUP1 SWAP2 SUB SWAP1 LOG1 JUMPDEST POP POP POP JUMP JUMPDEST PUSH1 0x3 PUSH1 0x0 DUP4 PUSH20 0xFFFFFFFFFFFFFFFFFFFFFFFFFFFFFFFFFFFFFFFF AND PUSH20 0xFFFFFFFFFFFFFFFFFFFFFFFFFFFFFFFFFFFFFFFF AND DUP2 MSTORE PUSH1 0x20 ADD SWAP1 DUP2 MSTORE PUSH1 0x20 ADD PUSH1 0x0 KECCAK256 PUSH1 0x0 DUP3 PUSH20 0xFFFFFFFFFFFFFFFFFFFFFFFFFFFFFFFFFFFFFFFF AND PUSH20 0xFFFFFFFFFFFFFFFFFFFFFFFFFFFFFFFFFFFFFFFF AND DUP2 MSTORE PUSH1 0x20 ADD SWAP1 DUP2 MSTORE PUSH1 0x20 ADD PUSH1 0x0 KECCAK256 PUSH1 0x0 SWAP1 SLOAD SWAP1 PUSH2 0x100 EXP SWAP1 DIV PUSH1 0xFF AND ISZERO PUSH2 0xDBA JUMPI PUSH1 0x0 PUSH1 0x2 PUSH1 0x0 DUP5 PUSH20 0xFFFFFFFFFFFFFFFFFFFFFFFFFFFFFFFFFFFFFFFF AND PUSH20 0xFFFFFFFFFFFFFFFFFFFFFFFFFFFFFFFFFFFFFFFF AND DUP2 MSTORE PUSH1 0x20 ADD SWAP1 DUP2 MSTORE PUSH1 0x20 ADD PUSH1 0x0 KECCAK256 PUSH1 0x0 DUP4 PUSH20 0xFFFFFFFFFFFFFFFFFFFFFFFFFFFFFFFFFFFFFFFF AND PUSH20 0xFFFFFFFFFFFFFFFFFFFFFFFFFFFFFFFFFFFFFFFF AND DUP2 MSTORE PUSH1 0x20 ADD SWAP1 DUP2 MSTORE PUSH1 0x20 ADD PUSH1 0x0 KECCAK256 SLOAD SWAP1 POP DUP1 PUSH1 0x1 PUSH1 0x0 DUP6 PUSH20 0xFFFFFFFFFFFFFFFFFFFFFFFFFFFFFFFFFFFFFFFF AND PUSH20 0xFFFFFFFFFFFFFFFFFFFFFFFFFFFFFFFFFFFFFFFF AND DUP2 MSTORE PUSH1 0x20 ADD SWAP1 DUP2 MSTORE PUSH1 0x20 ADD PUSH1 0x0 KECCAK256 PUSH1 0x0 DUP3 DUP3 SLOAD PUSH2 0xB87 SWAP2 SWAP1 PUSH2 0x130C JUMP JUMPDEST SWAP3 POP POP DUP2 SWAP1 SSTORE POP DUP1 PUSH1 0x2 PUSH1 0x0 DUP6 PUSH20 0xFFFFFFFFFFFFFFFFFFFFFFFFFFFFFFFFFFFFFFFF AND PUSH20 0xFFFFFFFFFFFFFFFFFFFFFFFFFFFFFFFFFFFFFFFF AND DUP2 MSTORE PUSH1 0x20 ADD SWAP1 DUP2 MSTORE PUSH1 0x20 ADD PUSH1 0x0 KECCAK256 PUSH1 0x0 DUP5 PUSH20 0xFFFFFFFFFFFFFFFFFFFFFFFFFFFFFFFFFFFFFFFF AND PUSH20 0xFFFFFFFFFFFFFFFFFFFFFFFFFFFFFFFFFFFFFFFF AND DUP2 MSTORE PUSH1 0x20 ADD SWAP1 DUP2 MSTORE PUSH1 0x20 ADD PUSH1 0x0 KECCAK256 PUSH1 0x0 DUP3 DUP3 SLOAD PUSH2 0xC1A SWAP2 SWAP1 PUSH2 0x130C JUMP JUMPDEST SWAP3 POP POP DUP2 SWAP1 SSTORE POP DUP2 PUSH20 0xFFFFFFFFFFFFFFFFFFFFFFFFFFFFFFFFFFFFFFFF AND PUSH2 0x8FC DUP3 SWAP1 DUP2 ISZERO MUL SWAP1 PUSH1 0x40 MLOAD PUSH1 0x0 PUSH1 0x40 MLOAD DUP1 DUP4 SUB DUP2 DUP6 DUP9 DUP9 CALL SWAP4 POP POP POP POP ISZERO PUSH2 0xC95 JUMPI PUSH32 0x6169A5F6FDC157BF38AF80EECC218B46765EAB9AD2D530D9A143FD8501602EF PUSH1 0x40 MLOAD PUSH2 0xC88 SWAP1 PUSH2 0x11C9 JUMP JUMPDEST PUSH1 0x40 MLOAD DUP1 SWAP2 SUB SWAP1 LOG1 PUSH2 0xDB4 JUMP JUMPDEST DUP1 PUSH1 0x1 PUSH1 0x0 DUP6 PUSH20 0xFFFFFFFFFFFFFFFFFFFFFFFFFFFFFFFFFFFFFFFF AND PUSH20 0xFFFFFFFFFFFFFFFFFFFFFFFFFFFFFFFFFFFFFFFF AND DUP2 MSTORE PUSH1 0x20 ADD SWAP1 DUP2 MSTORE PUSH1 0x20 ADD PUSH1 0x0 KECCAK256 PUSH1 0x0 DUP3 DUP3 SLOAD PUSH2 0xCE4 SWAP2 SWAP1 PUSH2 0x12B6 JUMP JUMPDEST SWAP3 POP POP DUP2 SWAP1 SSTORE POP DUP1 PUSH1 0x2 PUSH1 0x0 DUP6 PUSH20 0xFFFFFFFFFFFFFFFFFFFFFFFFFFFFFFFFFFFFFFFF AND PUSH20 0xFFFFFFFFFFFFFFFFFFFFFFFFFFFFFFFFFFFFFFFF AND DUP2 MSTORE PUSH1 0x20 ADD SWAP1 DUP2 MSTORE PUSH1 0x20 ADD PUSH1 0x0 KECCAK256 PUSH1 0x0 DUP5 PUSH20 0xFFFFFFFFFFFFFFFFFFFFFFFFFFFFFFFFFFFFFFFF AND PUSH20 0xFFFFFFFFFFFFFFFFFFFFFFFFFFFFFFFFFFFFFFFF AND DUP2 MSTORE PUSH1 0x20 ADD SWAP1 DUP2 MSTORE PUSH1 0x20 ADD PUSH1 0x0 KECCAK256 PUSH1 0x0 DUP3 DUP3 SLOAD PUSH2 0xD77 SWAP2 SWAP1 PUSH2 0x12B6 JUMP JUMPDEST SWAP3 POP POP DUP2 SWAP1 SSTORE POP PUSH32 0x6169A5F6FDC157BF38AF80EECC218B46765EAB9AD2D530D9A143FD8501602EF PUSH1 0x40 MLOAD PUSH2 0xDAB SWAP1 PUSH2 0x11A9 JUMP JUMPDEST PUSH1 0x40 MLOAD DUP1 SWAP2 SUB SWAP1 LOG1 JUMPDEST POP PUSH2 0xDF0 JUMP JUMPDEST PUSH32 0x6169A5F6FDC157BF38AF80EECC218B46765EAB9AD2D530D9A143FD8501602EF PUSH1 0x40 MLOAD PUSH2 0xDE7 SWAP1 PUSH2 0x1209 JUMP JUMPDEST PUSH1 0x40 MLOAD DUP1 SWAP2 SUB SWAP1 LOG1 JUMPDEST POP POP JUMP JUMPDEST PUSH1 0x0 PUSH2 0xE07 PUSH2 0xE02 DUP5 PUSH2 0x1269 JUMP JUMPDEST PUSH2 0x1244 JUMP JUMPDEST SWAP1 POP DUP3 DUP2 MSTORE PUSH1 0x20 DUP2 ADD DUP5 DUP5 DUP5 ADD GT ISZERO PUSH2 0xE23 JUMPI PUSH2 0xE22 PUSH2 0x145E JUMP JUMPDEST JUMPDEST PUSH2 0xE2E DUP5 DUP3 DUP6 PUSH2 0x1388 JUMP JUMPDEST POP SWAP4 SWAP3 POP POP POP JUMP JUMPDEST PUSH1 0x0 DUP2 CALLDATALOAD SWAP1 POP PUSH2 0xE45 DUP2 PUSH2 0x1638 JUMP JUMPDEST SWAP3 SWAP2 POP POP JUMP JUMPDEST PUSH1 0x0 DUP2 CALLDATALOAD SWAP1 POP PUSH2 0xE5A DUP2 PUSH2 0x164F JUMP JUMPDEST SWAP3 SWAP2 POP POP JUMP JUMPDEST PUSH1 0x0 DUP3 PUSH1 0x1F DUP4 ADD SLT PUSH2 0xE75 JUMPI PUSH2 0xE74 PUSH2 0x1459 JUMP JUMPDEST JUMPDEST DUP2 CALLDATALOAD PUSH2 0xE85 DUP5 DUP3 PUSH1 0x20 DUP7 ADD PUSH2 0xDF4 JUMP JUMPDEST SWAP2 POP POP SWAP3 SWAP2 POP POP JUMP JUMPDEST PUSH1 0x0 DUP1 PUSH1 0x40 DUP4 DUP6 SUB SLT ISZERO PUSH2 0xEA5 JUMPI PUSH2 0xEA4 PUSH2 0x1468 JUMP JUMPDEST JUMPDEST PUSH1 0x0 PUSH2 0xEB3 DUP6 DUP3 DUP7 ADD PUSH2 0xE36 JUMP JUMPDEST SWAP3 POP POP PUSH1 0x20 PUSH2 0xEC4 DUP6 DUP3 DUP7 ADD PUSH2 0xE36 JUMP JUMPDEST SWAP2 POP POP SWAP3 POP SWAP3 SWAP1 POP JUMP JUMPDEST PUSH1 0x0 DUP1 PUSH1 0x40 DUP4 DUP6 SUB SLT ISZERO PUSH2 0xEE5 JUMPI PUSH2 0xEE4 PUSH2 0x1468 JUMP JUMPDEST JUMPDEST PUSH1 0x0 PUSH2 0xEF3 DUP6 DUP3 DUP7 ADD PUSH2 0xE36 JUMP JUMPDEST SWAP3 POP POP PUSH1 0x20 DUP4 ADD CALLDATALOAD PUSH8 0xFFFFFFFFFFFFFFFF DUP2 GT ISZERO PUSH2 0xF14 JUMPI PUSH2 0xF13 PUSH2 0x1463 JUMP JUMPDEST JUMPDEST PUSH2 0xF20 DUP6 DUP3 DUP7 ADD PUSH2 0xE60 JUMP JUMPDEST SWAP2 POP POP SWAP3 POP SWAP3 SWAP1 POP JUMP JUMPDEST PUSH1 0x0 DUP1 PUSH1 0x0 PUSH1 0x60 DUP5 DUP7 SUB SLT ISZERO PUSH2 0xF43 JUMPI PUSH2 0xF42 PUSH2 0x1468 JUMP JUMPDEST JUMPDEST PUSH1 0x0 PUSH2 0xF51 DUP7 DUP3 DUP8 ADD PUSH2 0xE4B JUMP JUMPDEST SWAP4 POP POP PUSH1 0x20 PUSH2 0xF62 DUP7 DUP3 DUP8 ADD PUSH2 0xE36 JUMP JUMPDEST SWAP3 POP POP PUSH1 0x40 PUSH2 0xF73 DUP7 DUP3 DUP8 ADD PUSH2 0xE36 JUMP JUMPDEST SWAP2 POP POP SWAP3 POP SWAP3 POP SWAP3 JUMP JUMPDEST PUSH2 0xF86 DUP2 PUSH2 0x1340 JUMP JUMPDEST DUP3 MSTORE POP POP JUMP JUMPDEST PUSH1 0x0 PUSH2 0xF97 DUP3 PUSH2 0x129A JUMP JUMPDEST PUSH2 0xFA1 DUP2 DUP6 PUSH2 0x12A5 JUMP JUMPDEST SWAP4 POP PUSH2 0xFB1 DUP2 DUP6 PUSH1 0x20 DUP7 ADD PUSH2 0x1397 JUMP JUMPDEST PUSH2 0xFBA DUP2 PUSH2 0x146D JUMP JUMPDEST DUP5 ADD SWAP2 POP POP SWAP3 SWAP2 POP POP JUMP JUMPDEST PUSH1 0x0 PUSH2 0xFD2 PUSH1 0x14 DUP4 PUSH2 0x12A5 JUMP JUMPDEST SWAP2 POP PUSH2 0xFDD DUP3 PUSH2 0x147E JUMP JUMPDEST PUSH1 0x20 DUP3 ADD SWAP1 POP SWAP2 SWAP1 POP JUMP JUMPDEST PUSH1 0x0 PUSH2 0xFF5 PUSH1 0x21 DUP4 PUSH2 0x12A5 JUMP JUMPDEST SWAP2 POP PUSH2 0x1000 DUP3 PUSH2 0x14A7 JUMP JUMPDEST PUSH1 0x40 DUP3 ADD SWAP1 POP SWAP2 SWAP1 POP JUMP JUMPDEST PUSH1 0x0 PUSH2 0x1018 PUSH1 0x15 DUP4 PUSH2 0x12A5 JUMP JUMPDEST SWAP2 POP PUSH2 0x1023 DUP3 PUSH2 0x14F6 JUMP JUMPDEST PUSH1 0x20 DUP3 ADD SWAP1 POP SWAP2 SWAP1 POP JUMP JUMPDEST PUSH1 0x0 PUSH2 0x103B PUSH1 0x2D DUP4 PUSH2 0x12A5 JUMP JUMPDEST SWAP2 POP PUSH2 0x1046 DUP3 PUSH2 0x151F JUMP JUMPDEST PUSH1 0x40 DUP3 ADD SWAP1 POP SWAP2 SWAP1 POP JUMP JUMPDEST PUSH1 0x0 PUSH2 0x105E PUSH1 0x34 DUP4 PUSH2 0x12A5 JUMP JUMPDEST SWAP2 POP PUSH2 0x1069 DUP3 PUSH2 0x156E JUMP JUMPDEST PUSH1 0x40 DUP3 ADD SWAP1 POP SWAP2 SWAP1 POP JUMP JUMPDEST PUSH1 0x0 PUSH2 0x1081 PUSH1 0x1B DUP4 PUSH2 0x12A5 JUMP JUMPDEST SWAP2 POP PUSH2 0x108C DUP3 PUSH2 0x15BD JUMP JUMPDEST PUSH1 0x20 DUP3 ADD SWAP1 POP SWAP2 SWAP1 POP JUMP JUMPDEST PUSH1 0x0 PUSH2 0x10A4 PUSH1 0x16 DUP4 PUSH2 0x12A5 JUMP JUMPDEST SWAP2 POP PUSH2 0x10AF DUP3 PUSH2 0x15E6 JUMP JUMPDEST PUSH1 0x20 DUP3 ADD SWAP1 POP SWAP2 SWAP1 POP JUMP JUMPDEST PUSH1 0x0 PUSH2 0x10C7 PUSH1 0x19 DUP4 PUSH2 0x12A5 JUMP JUMPDEST SWAP2 POP PUSH2 0x10D2 DUP3 PUSH2 0x160F JUMP JUMPDEST PUSH1 0x20 DUP3 ADD SWAP1 POP SWAP2 SWAP1 POP JUMP JUMPDEST PUSH2 0x10E6 DUP2 PUSH2 0x137E JUMP JUMPDEST DUP3 MSTORE POP POP JUMP JUMPDEST PUSH1 0x0 PUSH1 0x20 DUP3 ADD SWAP1 POP PUSH2 0x1101 PUSH1 0x0 DUP4 ADD DUP5 PUSH2 0xF7D JUMP JUMPDEST SWAP3 SWAP2 POP POP JUMP JUMPDEST PUSH1 0x0 PUSH1 0x20 DUP3 ADD SWAP1 POP DUP2 DUP2 SUB PUSH1 0x0 DUP4 ADD MSTORE PUSH2 0x1121 DUP2 DUP5 PUSH2 0xF8C JUMP JUMPDEST SWAP1 POP SWAP3 SWAP2 POP POP JUMP JUMPDEST PUSH1 0x0 PUSH1 0x20 DUP3 ADD SWAP1 POP DUP2 DUP2 SUB PUSH1 0x0 DUP4 ADD MSTORE PUSH2 0x1142 DUP2 PUSH2 0xFC5 JUMP JUMPDEST SWAP1 POP SWAP2 SWAP1 POP JUMP JUMPDEST PUSH1 0x0 PUSH1 0x20 DUP3 ADD SWAP1 POP DUP2 DUP2 SUB PUSH1 0x0 DUP4 ADD MSTORE PUSH2 0x1162 DUP2 PUSH2 0xFE8 JUMP JUMPDEST SWAP1 POP SWAP2 SWAP1 POP JUMP JUMPDEST PUSH1 0x0 PUSH1 0x20 DUP3 ADD SWAP1 POP DUP2 DUP2 SUB PUSH1 0x0 DUP4 ADD MSTORE PUSH2 0x1182 DUP2 PUSH2 0x100B JUMP JUMPDEST SWAP1 POP SWAP2 SWAP1 POP JUMP JUMPDEST PUSH1 0x0 PUSH1 0x20 DUP3 ADD SWAP1 POP DUP2 DUP2 SUB PUSH1 0x0 DUP4 ADD MSTORE PUSH2 0x11A2 DUP2 PUSH2 0x102E JUMP JUMPDEST SWAP1 POP SWAP2 SWAP1 POP JUMP JUMPDEST PUSH1 0x0 PUSH1 0x20 DUP3 ADD SWAP1 POP DUP2 DUP2 SUB PUSH1 0x0 DUP4 ADD MSTORE PUSH2 0x11C2 DUP2 PUSH2 0x1051 JUMP JUMPDEST SWAP1 POP SWAP2 SWAP1 POP JUMP JUMPDEST PUSH1 0x0 PUSH1 0x20 DUP3 ADD SWAP1 POP DUP2 DUP2 SUB PUSH1 0x0 DUP4 ADD MSTORE PUSH2 0x11E2 DUP2 PUSH2 0x1074 JUMP JUMPDEST SWAP1 POP SWAP2 SWAP1 POP JUMP JUMPDEST PUSH1 0x0 PUSH1 0x20 DUP3 ADD SWAP1 POP DUP2 DUP2 SUB PUSH1 0x0 DUP4 ADD MSTORE PUSH2 0x1202 DUP2 PUSH2 0x1097 JUMP JUMPDEST SWAP1 POP SWAP2 SWAP1 POP JUMP JUMPDEST PUSH1 0x0 PUSH1 0x20 DUP3 ADD SWAP1 POP DUP2 DUP2 SUB PUSH1 0x0 DUP4 ADD MSTORE PUSH2 0x1222 DUP2 PUSH2 0x10BA JUMP JUMPDEST SWAP1 POP SWAP2 SWAP1 POP JUMP JUMPDEST PUSH1 0x0 PUSH1 0x20 DUP3 ADD SWAP1 POP PUSH2 0x123E PUSH1 0x0 DUP4 ADD DUP5 PUSH2 0x10DD JUMP JUMPDEST SWAP3 SWAP2 POP POP JUMP JUMPDEST PUSH1 0x0 PUSH2 0x124E PUSH2 0x125F JUMP JUMPDEST SWAP1 POP PUSH2 0x125A DUP3 DUP3 PUSH2 0x13CA JUMP JUMPDEST SWAP2 SWAP1 POP JUMP JUMPDEST PUSH1 0x0 PUSH1 0x40 MLOAD SWAP1 POP SWAP1 JUMP JUMPDEST PUSH1 0x0 PUSH8 0xFFFFFFFFFFFFFFFF DUP3 GT ISZERO PUSH2 0x1284 JUMPI PUSH2 0x1283 PUSH2 0x142A JUMP JUMPDEST JUMPDEST PUSH2 0x128D DUP3 PUSH2 0x146D JUMP JUMPDEST SWAP1 POP PUSH1 0x20 DUP2 ADD SWAP1 POP SWAP2 SWAP1 POP JUMP JUMPDEST PUSH1 0x0 DUP2 MLOAD SWAP1 POP SWAP2 SWAP1 POP JUMP JUMPDEST PUSH1 0x0 DUP3 DUP3 MSTORE PUSH1 0x20 DUP3 ADD SWAP1 POP SWAP3 SWAP2 POP POP JUMP JUMPDEST PUSH1 0x0 PUSH2 0x12C1 DUP3 PUSH2 0x137E JUMP JUMPDEST SWAP2 POP PUSH2 0x12CC DUP4 PUSH2 0x137E JUMP JUMPDEST SWAP3 POP DUP3 PUSH32 0xFFFFFFFFFFFFFFFFFFFFFFFFFFFFFFFFFFFFFFFFFFFFFFFFFFFFFFFFFFFFFFFF SUB DUP3 GT ISZERO PUSH2 0x1301 JUMPI PUSH2 0x1300 PUSH2 0x13FB JUMP JUMPDEST JUMPDEST DUP3 DUP3 ADD SWAP1 POP SWAP3 SWAP2 POP POP JUMP JUMPDEST PUSH1 0x0 PUSH2 0x1317 DUP3 PUSH2 0x137E JUMP JUMPDEST SWAP2 POP PUSH2 0x1322 DUP4 PUSH2 0x137E JUMP JUMPDEST SWAP3 POP DUP3 DUP3 LT ISZERO PUSH2 0x1335 JUMPI PUSH2 0x1334 PUSH2 0x13FB JUMP JUMPDEST JUMPDEST DUP3 DUP3 SUB SWAP1 POP SWAP3 SWAP2 POP POP JUMP JUMPDEST PUSH1 0x0 PUSH2 0x134B DUP3 PUSH2 0x135E JUMP JUMPDEST SWAP1 POP SWAP2 SWAP1 POP JUMP JUMPDEST PUSH1 0x0 DUP2 ISZERO ISZERO SWAP1 POP SWAP2 SWAP1 POP JUMP JUMPDEST PUSH1 0x0 PUSH20 0xFFFFFFFFFFFFFFFFFFFFFFFFFFFFFFFFFFFFFFFF DUP3 AND SWAP1 POP SWAP2 SWAP1 POP JUMP JUMPDEST PUSH1 0x0 DUP2 SWAP1 POP SWAP2 SWAP1 POP JUMP JUMPDEST DUP3 DUP2 DUP4 CALLDATACOPY PUSH1 0x0 DUP4 DUP4 ADD MSTORE POP POP POP JUMP JUMPDEST PUSH1 0x0 JUMPDEST DUP4 DUP2 LT ISZERO PUSH2 0x13B5 JUMPI DUP1 DUP3 ADD MLOAD DUP2 DUP5 ADD MSTORE PUSH1 0x20 DUP2 ADD SWAP1 POP PUSH2 0x139A JUMP JUMPDEST DUP4 DUP2 GT ISZERO PUSH2 0x13C4 JUMPI PUSH1 0x0 DUP5 DUP5 ADD MSTORE JUMPDEST POP POP POP POP JUMP JUMPDEST PUSH2 0x13D3 DUP3 PUSH2 0x146D JUMP JUMPDEST DUP2 ADD DUP2 DUP2 LT PUSH8 0xFFFFFFFFFFFFFFFF DUP3 GT OR ISZERO PUSH2 0x13F2 JUMPI PUSH2 0x13F1 PUSH2 0x142A JUMP JUMPDEST JUMPDEST DUP1 PUSH1 0x40 MSTORE POP POP POP JUMP JUMPDEST PUSH32 0x4E487B7100000000000000000000000000000000000000000000000000000000 PUSH1 0x0 MSTORE PUSH1 0x11 PUSH1 0x4 MSTORE PUSH1 0x24 PUSH1 0x0 REVERT JUMPDEST PUSH32 0x4E487B7100000000000000000000000000000000000000000000000000000000 PUSH1 0x0 MSTORE PUSH1 0x41 PUSH1 0x4 MSTORE PUSH1 0x24 PUSH1 0x0 REVERT JUMPDEST PUSH1 0x0 DUP1 REVERT JUMPDEST PUSH1 0x0 DUP1 REVERT JUMPDEST PUSH1 0x0 DUP1 REVERT JUMPDEST PUSH1 0x0 DUP1 REVERT JUMPDEST PUSH1 0x0 PUSH1 0x1F NOT PUSH1 0x1F DUP4 ADD AND SWAP1 POP SWAP2 SWAP1 POP JUMP JUMPDEST PUSH32 0x43616E6E6F742073656E64204F20616D6F756E74000000000000000000000000 PUSH1 0x0 DUP3 ADD MSTORE POP JUMP JUMPDEST PUSH32 0x7769746864726177616C206661696C65642E204D6F6E65792072657475726E65 PUSH1 0x0 DUP3 ADD MSTORE PUSH32 0x6400000000000000000000000000000000000000000000000000000000000000 PUSH1 0x20 DUP3 ADD MSTORE POP JUMP JUMPDEST PUSH32 0x7769746864726177616C207375636365737366756C0000000000000000000000 PUSH1 0x0 DUP3 ADD MSTORE POP JUMP JUMPDEST PUSH32 0x536F7272792120596F7572207472616E73616374696F6E20686173206E6F7420 PUSH1 0x0 DUP3 ADD MSTORE PUSH32 0x6265656E20766572696669656400000000000000000000000000000000000000 PUSH1 0x20 DUP3 ADD MSTORE POP JUMP JUMPDEST PUSH32 0x636F756C64206E6F7420706179206D657373656E6765722E204D6F6E65792072 PUSH1 0x0 DUP3 ADD MSTORE PUSH32 0x657475726E6564207375636365737366756C6C79000000000000000000000000 PUSH1 0x20 DUP3 ADD MSTORE POP JUMP JUMPDEST PUSH32 0x6D657373656E6765722070616964207375636365737366756C6C790000000000 PUSH1 0x0 DUP3 ADD MSTORE POP JUMP JUMPDEST PUSH32 0x4F6E6C792041646D696E2063616E20646F207468697300000000000000000000 PUSH1 0x0 DUP3 ADD MSTORE POP JUMP JUMPDEST PUSH32 0x5472616E73616374696F6E206E6F7420636F6D706C6574656400000000000000 PUSH1 0x0 DUP3 ADD MSTORE POP JUMP JUMPDEST PUSH2 0x1641 DUP2 PUSH2 0x1340 JUMP JUMPDEST DUP2 EQ PUSH2 0x164C JUMPI PUSH1 0x0 DUP1 REVERT JUMPDEST POP JUMP JUMPDEST PUSH2 0x1658 DUP2 PUSH2 0x1352 JUMP JUMPDEST DUP2 EQ PUSH2 0x1663 JUMPI PUSH1 0x0 DUP1 REVERT JUMPDEST POP JUMP INVALID LOG2 PUSH5 0x6970667358 0x22 SLT KECCAK256 LOG1 PUSH24 0x837F2F3F6AE9C31770F948BBA6130B34E82A1D02D04504B2 0xC1 DUP6 SWAP12 0xC0 0xD8 MSTORE PUSH5 0x736F6C6343 STOP ADDMOD SMOD STOP CALLER "
				},
				"gasEstimates": {
					"creation": {
						"codeDepositCost": "1157600",
						"executionCost": "25466",
						"totalCost": "1183066"
					},
					"external": {
						"confirmDelivery(bool,address,address)": "infinite",
						"contractOwner()": "2555",
						"depositToContract(address,string)": "infinite",
						"getStagedMoney(address,address)": "infinite",
						"returnMoneyToVendor(address,address)": "infinite"
					},
					"internal": {
						"payMessenger(address,address)": "infinite"
					}
				},
				"methodIdentifiers": {
					"confirmDelivery(bool,address,address)": "e14dd969",
					"contractOwner()": "ce606ee0",
					"depositToContract(address,string)": "1713248d",
					"getStagedMoney(address,address)": "a8f89ee1",
					"returnMoneyToVendor(address,address)": "a82d6437"
				}
			},
			"storageLayout": {
				"storage": [
					{
						"astId": 3,
						"contract": "escrow.sol:Escrow",
						"label": "contractOwner",
						"offset": 0,
						"slot": "0",
						"type": "t_address"
					},
					{
						"astId": 7,
						"contract": "escrow.sol:Escrow",
						"label": "balances",
						"offset": 0,
						"slot": "1",
						"type": "t_mapping(t_address,t_uint256)"
					},
					{
						"astId": 13,
						"contract": "escrow.sol:Escrow",
						"label": "payingToMessenger",
						"offset": 0,
						"slot": "2",
						"type": "t_mapping(t_address,t_mapping(t_address,t_uint256))"
					},
					{
						"astId": 19,
						"contract": "escrow.sol:Escrow",
						"label": "isPackageDelivered",
						"offset": 0,
						"slot": "3",
						"type": "t_mapping(t_address,t_mapping(t_address,t_bool))"
					},
					{
						"astId": 23,
						"contract": "escrow.sol:Escrow",
						"label": "vendors",
						"offset": 0,
						"slot": "4",
						"type": "t_mapping(t_address,t_address)"
					},
					{
						"astId": 27,
						"contract": "escrow.sol:Escrow",
						"label": "messengers",
						"offset": 0,
						"slot": "5",
						"type": "t_mapping(t_address,t_address)"
					}
				],
				"types": {
					"t_address": {
						"encoding": "inplace",
						"label": "address",
						"numberOfBytes": "20"
					},
					"t_bool": {
						"encoding": "inplace",
						"label": "bool",
						"numberOfBytes": "1"
					},
					"t_mapping(t_address,t_address)": {
						"encoding": "mapping",
						"key": "t_address",
						"label": "mapping(address => address)",
						"numberOfBytes": "32",
						"value": "t_address"
					},
					"t_mapping(t_address,t_bool)": {
						"encoding": "mapping",
						"key": "t_address",
						"label": "mapping(address => bool)",
						"numberOfBytes": "32",
						"value": "t_bool"
					},
					"t_mapping(t_address,t_mapping(t_address,t_bool))": {
						"encoding": "mapping",
						"key": "t_address",
						"label": "mapping(address => mapping(address => bool))",
						"numberOfBytes": "32",
						"value": "t_mapping(t_address,t_bool)"
					},
					"t_mapping(t_address,t_mapping(t_address,t_uint256))": {
						"encoding": "mapping",
						"key": "t_address",
						"label": "mapping(address => mapping(address => uint256))",
						"numberOfBytes": "32",
						"value": "t_mapping(t_address,t_uint256)"
					},
					"t_mapping(t_address,t_uint256)": {
						"encoding": "mapping",
						"key": "t_address",
						"label": "mapping(address => uint256)",
						"numberOfBytes": "32",
						"value": "t_uint256"
					},
					"t_uint256": {
						"encoding": "inplace",
						"label": "uint256",
						"numberOfBytes": "32"
					}
				}
			},
			"userdoc": {
				"kind": "user",
				"methods": {},
				"version": 1
			}
		}
	}
}